:020000040000fa
:080000000001040000000000f3
:020000040000fa
:040008008e02000064
:020000040000fa
:04000c00920200005c
:020000040000fa
:04001000ae0200003c
:020000040000fa
:040014009602000050
:020000040000fa
:040018009a02000048
:020000040000fa
:04001c00ae02000030
:020000040000fa
:04002000ae0200002c
:020000040000fa
:04002400ae02000028
:020000040000fa
:04002800ae02000024
:020000040000fa
:04002c00ae02000020
:020000040000fa
:04003000ae0200001c
:020000040000fa
:040034004a0200007c
:020000040000fa
:0400380004020000be
:020000040000fa
:04003c00ae02000010
:020000040000fa
:04004000ae0200000c
:020000040000fa
:04004400ae02000008
:020000040000fa
:04004800ae02000004
:020000040000fa
:04004c00ae02000000
:020000040000fa
:04005000ae020000fc
:020000040000fa
:04005400ae020000f8
:020000040000fa
:04005800ae020000f4
:020000040000fa
:04005c00ae020000f0
:020000040000fa
:04006000ae020000ec
:020000040000fa
:04006400ae020000e8
:020000040000fa
:04006800ae020000e4
:020000040000fa
:04006c00ae020000e0
:020000040000fa
:04007000ae020000dc
:020000040000fa
:040074005002000036
:020000040000fa
:04007800ae020000d4
:020000040000fa
:04007c00ae020000d0
:020000040000fa
:04008000ae020000cc
:020000040000fa
:04008400ae020000c8
:020000040000fa
:04008800ae020000c4
:020000040000fa
:04008c00ae020000c0
:020000040000fa
:04009000ae020000bc
:020000040000fa
:04009400ae020000b8
:020000040000fa
:04009800ae020000b4
:020000040000fa
:04009c00ae020000b0
:020000040000fa
:0400a000ae020000ac
:020000040000fa
:0400a400ae020000a8
:020000040000fa
:0400a800ae020000a4
:020000040000fa
:0400ac00ae020000a0
:020000040000fa
:0400b000ae0200009c
:020000040000fa
:0400b400ae02000098
:020000040000fa
:0400b800ae02000094
:020000040000fa
:0400bc00ae02000090
:020000040000fa
:0400c000ae0200008c
:020000040000fa
:0400c400ae02000088
:020000040000fa
:0400c800ae02000084
:020000040000fa
:0400cc00ae02000080
:020000040000fa
:0400d000ae0200007c
:020000040000fa
:0400d400ae02000078
:020000040000fa
:0400d800ae02000074
:020000040000fa
:0400dc00ae02000070
:020000040000fa
:0400e000ae0200006c
:020000040000fa
:0400e400ae02000068
:020000040000fa
:0400e800ae02000064
:020000040000fa
:0400ec00ae02000060
:020000040000fa
:0400f000ae0200005c
:020000040000fa
:0400f400ae02000058
:020000040000fa
:0400f800ae02000054
:020000040000fa
:0400fc00ae02000050
:020000040000fa
:04010000ae0200004b
:020000040000fa
:04010400ae02000047
:020000040000fa
:04010800ae02000043
:020000040000fa
:04010c00ae0200003f
:020000040000fa
:04011000ae0200003b
:020000040000fa
:04011400ae02000037
:020000040000fa
:04011800ae02000033
:020000040000fa
:04011c00ae0200002f
:020000040000fa
:04012000ae0200002b
:020000040000fa
:04012400ae02000027
:020000040000fa
:04012800ae02000023
:020000040000fa
:04012c00ae0200001f
:020000040000fa
:04013000ae0200001b
:020000040000fa
:04013400ae02000017
:020000040000fa
:04013800ae02000013
:020000040000fa
:04013c00ae0200000f
:020000040000fa
:04014000ae0200000b
:020000040000fa
:04014400ae02000007
:020000040000fa
:04014800ae02000003
:020000040000fa
:04014c00ae020000ff
:020000040000fa
:04015000ae020000fb
:020000040000fa
:04015400ae020000f7
:020000040000fa
:04015800ae020000f3
:020000040000fa
:04015c00ae020000ef
:020000040000fa
:04016000ae020000eb
:020000040000fa
:04016400ae020000e7
:020000040000fa
:04016800ae020000e3
:020000040000fa
:04016c00ae020000df
:020000040000fa
:04017000ae020000db
:020000040000fa
:04017400ae020000d7
:020000040000fa
:04017800ae020000d3
:020000040000fa
:04017c00ae020000cf
:020000040000fa
:04018000ae020000cb
:020000040000fa
:04018400ae020000c7
:020000040000fa
:04018800ae020000c3
:020000040000fa
:04018c00ae020000bf
:020000040000fa
:04019000ae020000bb
:020000040000fa
:04019400ae020000b7
:020000040000fa
:04019800ae020000b3
:020000040000fa
:04019c00ae020000af
:020000040000fa
:0401a000ae020000ab
:020000040000fa
:0401a400ae020000a7
:020000040000fa
:0401a800ae020000a3
:020000040000fa
:0401ac00ae0200009f
:020000040000fa
:0401b000ae0200009b
:020000040000fa
:0401b400ae02000097
:020000040000fa
:0401b800ae02000093
:020000040000fa
:0401bc00ae0200008f
:020000040000fa
:0401c000ae0200008b
:020000040000fa
:0401c400ae02000087
:020000040000fa
:0401c800ae02000083
:020000040000fa
:0401cc00ae0200007f
:020000040000fa
:0401d000ae0200007b
:020000040000fa
:0401d400ae02000077
:020000040000fa
:0401d800ae02000073
:020000040000fa
:0401dc00ae0200006f
:020000040000fa
:0401e000ae0200006b
:020000040000fa
:0401e400ae02000067
:020000040000fa
:0401e800ae02000063
:020000040000fa
:0401ec00ae0200005f
:020000040000fa
:0401f000ae0200005b
:020000040000fa
:0401f400ae02000057
:020000040000fa
:0401f800ae02000053
:020000040000fa
:0401fc00ae0200004f
:020000040000fa
:100200006f3822000e7f24000e01880000000000dd
:10021000000020000000e000020032000001200089
:100220002002880014000700cd0007000000e00055
:1002300003003a0020aa210001002000020037003c
:100240000000200001002000810f7000010032003a
:1002500014000700000020000000e000020032004f
:100260000000020000000000d41a0200000000009c
:100270000040da000000fe004440a900c01b20003e
:100280000000e00003003200002020009001880000
:100290004440a800000006008a1f78008b1f7800e9
:1002a00000000600a1028800800478000000eb0036
:1002b0001f003700e284440054a0b4009905ba003e
:1002c000e284440054a0b4009906ba00e2844400d9
:1002d00054a0b4000006eb00476fde00fd07b2003b
:1002e000ae018800636ce10003003a00eaff0700fa
:1002f0000000eb000e003700606ce10008003a00df
:10030000004deb000a05e800020039003420ec0043
:100310000af0a0008b05e900f9ff3e000400370059
:100320006168e100010032000086eb000b0007006d
:1003300019c7ba001905ba000e04e00003003a001c
:100340000a00e000dbff3a0000000600fe07b200f2
:10035000ae0288008a047800f5ff37000cd0a300b5
:10036000e20f4d001c00390089027800354dba00bb
:100370000a05e800020039003420ec000af0a00071
:100380008b05e9000f003200254dba000a05e80090
:10039000020039003420ec000af0a0008b05e900cf
:1003a000080032000c00e0000600320015cdba0053
:1003b0000a05e800020039003420ec000af0a00031
:1003c0008b05e9008984e80054a0b4000b00e0002c
:1003d000e2ff3a00000006009902ba00055d7800cd
:1003e0008b05e900f7ff3200c82ade00055d7800c2
:1003f0008b05e900f3ff32000c00e000f1ff320052
:1004000019ddba00eeff37003600f800809fbe000d
:10041000829fbe00849fbe00869fbe00ce84ab003c
:1004200015003a00cea4ab0007003a008880a9006e
:100430004f03be004f02be004f01be004f00be0082
:100440003600f90000400600201a2200cf070700fe
:10045000ce84a900cea4a9008880a9004f03be00c5
:100460004f02be004f01be004f00be003600f90033
:1004700000400600f4ff3700200a2200c3070700ef
:10048000ce84a900cea4a900cea4ab00e7ff320021
:10049000edff37004628ec008860a9000040060008
:1004a0003600f800809fbe00829fbe00849fbe0081
:1004b000869fbe007006ab0014003a007026ab00a9
:1004c00008003a007026ef008a60a9004f03be00c2
:1004d0004f02be004f01be004f00be003600f900c3
:1004e00000400600450407007026ef008a60a9005e
:1004f0004f03be004f02be004f01be004f00be00c2
:100500003600f90000400600f6ff37004d040700f2
:100510007026ab00ebff3200f2ff37008020a9000d
:10052000ffff37008060a900ffff37008040a9006f
:10053000ffff37008080a900ffff37008020a9005f
:10054000ffff37008060a900ffff37008040a9004f
:10055000ffff37008080a900ffff3700ffff370053
:040560000000050092
:020000040000fa
:100564000000000000000000800000000100000006
:100574000000000000000000000000001000000067
:100584000000000000000000000000001000000057
:100594000000000000000000000000001000000047
:1005a40000000000000000007f00000002000000c6
:1005b40000000000000000008100000002000000b4
:1005c40000000000000000008000000002000000a5
:1005d4000000000000000000000000001000000007
:1005e4000000000000000000800000000200000085
:1005f400000000000080000080ff000002000000f6
:1006040000000000000000000000000010000000d6
:1006140000000000000000000000000010000000c6
:1006240000000000000000007f0000000200000045
:10063400000000000080000081ff000002000000b4
:100644000000000000000000810000000200000023
:1006540000000000008000007fff00000200000096
:100664000000000000000000800000000100000005
:10067400000000000040000080ff000001000000b6
:100684000000000000000000000000001000000056
:100694000000000000000000000000001000000046
:1006a40000000000000000008000000001000000c5
:1006b4000000000000000000000100000200000033
:1006c4000000000000000000000000001000000016
:1006d4000000000000000000000000001000000006
:1006e4000000000000000000800000000100000085
:1006f400000000000018000080ff0000010000005e
:1007040000000000000000000000000010000000d5
:1007140000000000000000000000000010000000c5
:1007240000000000000000007f0000000200000044
:100734000000000000000000820000000200000031
:100744000000000000000000800000000200000023
:100754000000000000800000000100000200000012
:100764000000000000000000800000000300000002
:100774000000000000000000000000001000000065
:100784000000000000000000ff0000000300000063
:1007940000000000008000000101000003000000d0
:1007a40000000000000000008000000004000000c1
:1007b400000000000080000080ff00000400000032
:1007c40000000000000000008000000003000000a2
:1007d4000000000000800000400000000400000051
:1007e4000000000000000000800000000300000082
:1007f400000000000040000080ff00000300000033
:1008040000000000000000000001000003000000e0
:1008140000000000008000007f00000004000000d1
:100824000000000000000000800000000300000041
:10083400000000000018000080ff0000030000001a
:100844000000000000000000810000000300000020
:1008540000000000008000007f0000000300000092
:100864005649000004000000968a000004000000bd
:10087400b8cf000004000000f618000005000000d6
:100884008e66000005000000c4b8000005000000ea
:10089400de0f000006000000256c000006000000ca
:1008a400eacd0000060000007e35000007000000cd
:1008b4003ba30000070000007f17000008000000b1
:1008c400ac920000080000000303000003030000d2
:0808d400020200000301000014
:020000040000fa
:1008dc000104e00013003500104190000204e00018
:1008ec0001003a0001487800640040000281fb00de
:1008fc004211dd00020040000001eb0003c8b30010
:10090c0000027800b0cf1100040032000201e800b0
:10091c00e40f5100faff3a0000000600014a78008b
:10092c0000000600104190000204e00002003a00b2
:10093c0003c3b30003487800640040000281fb004d
:10094c004211dd000200400001487800114098007f
:10095c002140980031409800000006001d06070059
:10096c0000c0eb00e1092200804878008100e8001b
:10097c00804878008100e800804878008100e80019
:10098c008048780000000600881f7800000478007a
:10099c00f2ff070018407800e1c5b300814f50000a
:1009ac0009003600408520000048eb000000e800fc
:1009bc000048eb0011c0b3006d00500001487800f6
:1009cc004f04780000000600004ce8004f0478004b
:1009dc0000000600fcff3700ea874700889fbe0036
:1009ec008a9fbe008c9fbe008e1f780080842000e2
:1009fc000048eb00d00720005042880030428000b5
:100a0c0070428800018520008008eb008180e8009e
:100a1c008048eb008100e8008048eb008100e80092
:100a2c008048eb008100e8008048eb008100e80082
:100a3c008048eb000cc3b3008100e8008c487800c0
:100a4c000628ef001428ef0080408800c0048900bd
:100a5c00d0048900e00489000428ef000068ef004e
:100a6c000168ef000268ef000368ef0001c8b300f3
:100a7c00e0092200014878000000e80001487800f5
:100a8c000000e800014878000000e8000148780008
:100a9c008b8520000b037800e38245000002eb00fd
:100aac000045eb0047182000030620000c4b780093
:100abc001a439800804aeb0007a4b9006400440074
:100acc00008045000001eb000148780011409800bf
:100adc0021409800314098000201e8006400400079
:100aec00830f5100f8ff3a00f4fa9f000402e8006b
:100afc004618b0004518b000f00f5200ebff3a005a
:100b0c0000c3b300804d780045c0b300928520002f
:100b1c0005497800630141000049780064014100f7
:100b2c0000497800640141000049780064014100eb
:100b3c00004978004217b000004978000201e80033
:100b4c00054978006301410000497800c2c3b30035
:100b5c00439e200082497800e4814100804978005e
:100b6c00e4814100824978004317b0008049780045
:100b7c008301e80085497800e381410080497800d1
:100b8c00e48141008249780073c3b300c4b62000ed
:100b9c00034a780064024200024a78004417b0000d
:100bac00004a78000402e800054a7800630242001b
:100bbc00004a7800a7c3b30064024200074a7800d9
:100bcc0064024200024a780036c3b3006402420059
:100bdc00064a78004417b000004a780084c0b3007d
:100bec0096e62000044b780063034300004b78002a
:100bfc0064034300014b780064034300004b78000e
:100c0c0064034300004b780064034300014b7800fd
:100c1c0064034300004b780064034300004b7800ee
:100c2c0064034300014b78004616b000004b78007b
:100c3c000603e800044b780063034300004b780084
:100c4c0064034300004b780064034300014b7800bd
:100c5c0064034300004b780064034300014b7800ad
:100c6c0064034300004b780016c8b30088002100d1
:100c7c00064c780064044400014c78004816b0001f
:100c8c00004c78000804e800044c7800630444002d
:100c9c00004c780064044400064c78006404440062
:100cac00034c780064044400004c78006404440055
:100cbc00014c780064044400024c78006404440045
:100ccc00014c780064044400024c78004816b000d3
:100cdc00004c78000804e800044c780063044400dd
:100cec00004c7800bac2b300640444000a4c78008b
:100cfc0064044400034c780064044400004c780005
:100d0c0064044400064c780064044400014c7800f0
:100d1c0064044400024c780064044400014c7800e4
:100d2c004816b000004c78000804e800054c780028
:100d3c0063044400004c780064044400004c7800c8
:100d4c000804e800034c7800f8c3b3002a482100db
:100d5c00084d78000a85e800004d780064054500d0
:100d6c00004d78000a05e800034d78000a05e800fc
:100d7c00084d7800281720000a044400004c780025
:100d8c000804e800054c780063044400004c78002b
:100d9c0064044400004c78000804e800034c78001c
:100dac0008c4b300ca17b000084d78000a85e800e3
:100dbc00004d780064054500004d78000a05e800f8
:100dcc00034d78000a05e800084d7800281720002c
:100ddc000a044400004c78000804e800054c780034
:100dec0063044400004c780064044400024c780016
:100dfc0064044400004c78000804e800034c7800bc
:100e0c0063044400024c78004817b000004c780092
:100e1c000804e800054c7800e3024400804a78009e
:100e2c00e7024400824a7800e4824200804a78005b
:100e3c008502e800874a7800e3824200824a780003
:100e4c004517b000804a78008502e800844a780093
:100e5c00e3824200804a78008502e800824a7800ea
:100e6c00e3824200804a7800e4824200814a7800a2
:100e7c00e4824200814a7800e4824200804a780091
:100e8c0055c3b3008819b000054c780063044400c6
:100e9c00004c78000804e800024c7800630444001d
:100eac00014c780064044400014c78004816b000f2
:100ebc00004c78000804e800044c780063044400fb
:100ecc00004c78000804e800024c780063044400ed
:100edc00014c780064044400004c78006404440025
:100eec00014c780064044400004c78000804e800cd
:100efc00034c780063044400004c78000804e800bc
:100f0c00024c780063044400014c780064044400f3
:100f1c00004c78004816b000004c78000804e8003b
:100f2c00044c780063044400004c78000804e8008a
:100f3c00034c780063044400064c78000804e80075
:100f4c00064c780063044400024c780064044400ae
:100f5c00014c780064044400054c7800640444009f
:100f6c00014c780064044400054c78001ac3b300ab
:100f7c00640444000a4c78000804e800054c78002e
:100f8c003816b000004c78000804e800044c7800d7
:100f9c0063024400004a780067024400034a780068
:100fac008401e80082497800e4014200804978001d
:100fbc00e481410081497800e48041008048780058
:100fcc006880410007487800698041000248780039
:100fdc0063004000064878000000e80006487800ee
:100fec006300400005487800002028000100200024
:100ffc00f0b79f0081bf9f00eec5b3007fb4970090
:10100c008fbc97000820b1000980b1007681570091
:10101c000800be00270907005fb19700efb19700e9
:10102c0061005100e0805900e30f4000e08f480060
:10103c0020003e004fe997003fe897000040e90090
:10104c008e4f50001b003e00ef4f510019003e0028
:10105c000281fb00401820000091b900028145007c
:10106c007fb697008fbe9700cc07b1000d80b10002
:10107c00640541000800be000e090700640444002a
:10108c00e0844c008c0f54008d8f5c000900320002
:10109c000a017800640541000800be00050907003c
:1010ac0064044400e0844c008c0f54008d8f5c0071
:1010bc00f7ff3a007fb097008fb897000020b00080
:1010cc000180b000f0b79f0081bf9f00022020007c
:1010dc0013002000820f5000838f5800c7ff3a0086
:1010ec004f0778004f06be004f05be004f04be00f0
:1010fc00af00b10000000600e6874700889fbe00e5
:10110c008a9fbe008c9fbe008e1f78000ec8bf0049
:10111c0046003a001248e20044003a000048e2005f
:10112c0006003200524080003142800002815000a3
:10113c00d1072000810f510099003e000148e200c8
:10114c000600320062408000334280000281510070
:10115c00d1072000810f51008f003e000248e200b1
:10116c0006003200b240800034428000020152007e
:10117c00d1072000810f510085003e000348e2009a
:10118c000600320042408000314280000281500053
:10119c00813e2000810f51007b003e0021408000e9
:1011ac000100e0000a0032008100e900818040006b
:1011bc008209220062817800334280000281510052
:1011cc0071bb2000810f5100010036000428ef0094
:1011dc000004e00022003200304080008142800098
:1011ec00808f50008100320031428000b140880075
:1011fc0012c0b30024802000024a7800714288009b
:10120c00804288008084200014c0b300904f1200ec
:10121c00220032004f0778004f06be004f05be007b
:10122c004f04be006f00b100000006003242800087
:10123c00e18420001101510081bb2000810f51007d
:10124c00b6ff3600c5fd07000e68ef001268ef0010
:10125c00808420000048eb000040eb00afff37001b
:10126c001248e20050003200304080008142800081
:10127c00808f5000e7ff32000008a300daff3a002d
:10128c0031428000714288008042880080842000b6
:10129c0014c0b300904f1200deff3a006c06400001
:1012ac001c04e0004e003a005b8520001b04e000ab
:1012bc008e00320063805500904078008183fb00e3
:1012cc004218200002b9b9009085200060427900d4
:1012dc000404e000cfff32001c83fb008602e80010
:1012ec000482fb00110009008402d80081bf9f001a
:1012fc00e90922001a0620000abdb9000102780093
:10130c008a0042008100e800420ddd008d8520003e
:10131c000a8546000004eb005b852000020778007c
:10132c004230dd00080040000e0040006400400028
:10133c00ed4078008180fb0000082000808f500079
:10134c00050032001b04e0003800320010c8b30066
:10135c009a4f100005003200194078000004e0009c
:10136c00010034008603070080cceb000804e80081
:10137c008904e8000a05e800e40f5400410032003b
:10138c001c83fb00e6ff37000368ef0083ff370088
:10139c000268ef0079ff37000168ef006fff37003c
:1013ac000068ef0065ff370031428000e0842000c8
:1013bc001081500064005000900f510095ff3900cf
:1013cc003040800071428800804288008084200078
:1013dc0014c0b300904f12008eff3a00afff3700dd
:1013ec006a00400090407800b4ff37005b85200015
:1013fc001b04e00087ff32003142800067815500fa
:10140c009281500069815500928f510081ff390003
:10141c0071428800804288008084200014c0b30090
:10142c00904f12007bff3a009cff3700f007200022
:10143c00808f5000cdff3c00728520009281fb0014
:10144c008485200064417f000281fb0002815100f1
:10145c00810041002a003300808f500029003400a5
:10146c00e0ef9f00520207006fe99700824c780072
:10147c000804e8008904e8000a05e800e40f5400b9
:10148c00bfff3a00508520001b04e0000a00320028
:10149c008ff19700034e78000048eb004f0778005f
:1014ac004f06be004f05be004f04be006f00b100da
:1014bc00000006005dff370011c0b3000148780042
:1014cc004608f8001608f90024802000014a78002c
:1014dc004f0778004f06be004f05be004f04be00fc
:1014ec006f00b1000000060050ff3700308520006f
:1014fc00904078000000e900014878006fff370049
:10150c008000eb0001407800e1ef9f00280207000b
:10151c006fe99700824c7800d5ff3700808420005b
:10152c001080fb0000000600318520008048780008
:10153c00eb8050001104e00002003a00ea80400009
:10154c008048780000000600308520001080fb00e9
:10155c00000006000e48e20008003a001248e200c3
:10156c0006003200a04080000000e00004003a00b9
:10157c0050002000a04088000628ec000000060067
:10158c000000e900a04088000000060010c0b30075
:10159c0012e8b7001428ef000628ef008040eb009b
:1015ac0042852000014978000201e80001497800d9
:1015bc00e50051008008eb00314280007142880048
:1015cc00ed005100804878000000060010c0b30008
:1015dc0012e8b700818420008048780000000600e3
:1015ec001268ef00808420000048eb00dbfc370021
:1015fc000e48e2000a003200314280008040800038
:10160c0000805000f30f5000040036008140880029
:10161c000000d100604288000628ec0000000600a3
:10162c004608f8001008f90010002000304088002f
:10163c000ee8b700000006000040eb0041852000da
:10164c00804878008100e8008048780030408000b5
:10165c0080428800304280007042880011c0b30084
:10166c00808420000148780000000600881f780064
:10167c000044780080842000104078000004e000d2
:10168c002f003200e14f500036003200e24f500084
:10169c00020032004f047800000006004608f800f3
:1016ac000c08f90010c0b30001e8b7002085200039
:1016bc001081fb00401820000091b90081852000aa
:1016cc0001004100658520001504e0001500320082
:1016dc0003c3b300034878008101e8008281410014
:1016ec008049eb008381e8008049eb0064014100f4
:1016fc00810041008001eb0002c8b3000406200009
:10170c008248780092409800a2409800b24098001d
:10171c008301e800e4804000848f5100f8ff3a0018
:10172c00804aeb008840780069fc0700084078008c
:10173c009f0107004f04780000000600d7ff370018
:10174c004608f8000a08f90010c0b30000e8b7001a
:10175c0008407800960107004f047800000006004e
:10176c00ceff37004608f8000a08f90000e8b70079
:10177c0070852000084878004f04780000000600af
:10178c00c6ff370081842000914078000104e000fe
:10179c0017003200e2cf50000100320000000600ba
:1017ac00218520009180fb0014062000048ab900da
:1017bc00421820000289b90082007800928520002e
:1017cc00e2c178008381fb00848141008301e80041
:1017dc00c219dd000201e900e2c1790080cf51009d
:1017ec00eeff3a00028040000000e80066fc370083
:1017fc0063023700e6874700889fbe008a9fbe00c1
:10180c008c9fbe008e1f78008084200010407800d2
:10181c000004e0001a003a000348e20025003a00f8
:10182c00208520001087fb00700447004b44dd002e
:10183c008004eb000c6020000d0020000806460020
:10184c0089864e000805be00728157000a00be0052
:10185c00180707007fb097008fb89700e10f400082
:10186c00e08f48003b0032008c0f55008d8f5d00df
:10187c00160032000a20b0000b80b000f2ff3700d7
:10188c00e24f50000b003a00208520009080fb00b6
:10189c00401820000088b90088852000000444000e
:1018ac0001c8b3000800780009fc07000800e80034
:1018bc0035fc07004f0778004f06be004f05be00f1
:1018cc004f04be006f00b100000006000800be000f
:1018dc00e60607004218200002f1b90080852000be
:1018ec00020140004b182000828545006405410030
:1018fc000800be00f506070064044400e0844c00b8
:10190c008b0f5500080032000a0178006405410075
:10191c000800be00ed06070064044400e0844c009f
:10192c008b0f5500f8ff3a004608f8000808f9003c
:10193c0010c0b30003e8b7004f0778004f06be0095
:10194c004f05be004f04be006f00b1000000060042
:10195c00deff37004218200002f1b900808520001c
:10196c0002014000491820008284440064044100b4
:10197c000a00be00d506070064054500e0854d0051
:10198c00890f5400e8ff320008017800f7ff370098
:10199c00f2fb07008184200011407800e14f5000d9
:1019ac0007003600e24f5000010032000000060034
:1019bc00408520000048eb008048eb00000006004a
:1019cc006c8040000048eb0012c0b3006e804000f9
:1019dc000248780020c0b300804878000000060060
:1019ec00defb070080842000904078000104e000ba
:1019fc0004003200e2cf5000020032000048eb003d
:101a0c0000000600c18420008008eb0033428000f7
:101a1c000181e9008180e80092885100314080000a
:101a2c0081428800ea0041008048eb00eb00410055
:101a3c008048eb00e38050001181fb00411820002e
:101a4c000191b9008485200071852000e44879005b
:101a5c0011c0b3000148780000000600204080004f
:101a6c0031428000820922008001400001b17900de
:101a7c000000e80020408800e30f50000100320015
:101a8c00000006000428ef006400410010007800fc
:101a9c00120050004300de00504288007142880062
:101aac0000000600889fbe00808420001040780053
:101abc00e14f500012003200e24f500002003200a1
:101acc004f04be0000000600208520001084fb009f
:101adc004018200000c4b900808520000804400094
:101aec0011c8b3000800780079fb07000800e80073
:101afc00a5fb07004f04be0000000600f2ff3700f4
:101b0c00d6ff07004f04be0000000600eeff3700b2
:101b1c00889fbe008a9fbe008c9fbe008e1f7800df
:101b2c000100e00014003500000140000382200099
:101b3c0081317900c808dd005241800002874000e5
:101b4c005700330002002600820f57000f003400ac
:101b5c004200dd00212a2200808040008008eb003a
:101b6c00b1107800212f22000080400002002800d4
:101b7c00130020000288be004f0778004f06be00fd
:101b8c004f05be004f04be00000006006173b90093
:101b9c004206dd00222f22000c0141001202be0081
:101bac00c22cde004e28dd004224de00080470004a
:101bbc000802520089825a000402430085824b00bd
:101bcc000489be003068ab0005003200ce28dd0071
:101bdc004222de0004827000c22ade000407780074
:101bec0048f2de00c3002000110009000302d800f7
:101bfc0081017800c21add002243280085024100d1
:101c0c001505be00252a22000c8042008301e80045
:101c1c00c219dd000301410032041500a2841d002d
:101c2c000e017800f20fb2006113b90006c9b900b9
:101c3c0008beb900020146000643b8008703410004
:101c4c00c838dd004831de0002817000c839de0082
:101c5c000201450083814d00b5aa220005a2b900fe
:101c6c000582d100cff0de0081005200e980100027
:101c7c008100e900030033008301d1000281d3000d
:101c8c00fbff37000288be004f0778004f06be00ee
:101c9c004f05be004f04be0000000600bbff37001e
:101cac006033b8000007eb00b9ff37001c28ef00c9
:101cbc002a28ef001a28ef001828ef001e68ef0002
:101ccc002828ef006000b800101589002115890044
:101cdc0020a8ef00301589004115890022a8ef00db
:101cec00501589006115890024a8ef007015890032
:101cfc008115890026a8ef007a66a8007a26a8002c
:101d0c00202b220002042000000141008000eb0087
:101d1c000008eb003010780021009800310098008a
:101d2c0068004000820f5000f9ff3a0000000600e6
:101d3c00881f7800304280002e08e3000a00320031
:101d4c007041880068418000080044000182200036
:101d5c00e1007800080078006dff07000804e80037
:101d6c0063046400684188004f047800000006009a
:101d7c00e0408000000006006700b900020022006d
:101d8c00f3ff2f0000004100818049004b09dd006a
:101d9c004500de0000007100504188000000060084
:101dac000004b1004900dd00d040880000000600ae
:101dbc00889fbe008a9fbe008c9fbe00e1408000c1
:101dcc00e78f50006000340049418000090478001e
:101ddc0008f0a7000804ea000804e9004f44de00fc
:101dec000804e00024003a002008e2002f00340030
:101dfc002208e200820034002408e200a000340033
:101e0c002608e200be003400804180000008a300d8
:101e1c000200320010c0b3001ee8b700e1812000c0
:101e2c00e881400002002800b40520008525200030
:101e3c00510078000000e00008003500840f5000cd
:101e4c003c003c00fb0f50003b003c0000502b00c2
:101e5c00800f510001003d0000017800838f50007d
:101e6c00f3ff3a00c24088004f06be004f05be008b
:101e7c004f04be00000006006033b8001615890040
:101e8c002715890020a8ef00361589004715890011
:101e9c0022a8ef00561589006715890024a8ef00c9
:101eac00761589008715890026a8ef000001eb0044
:101ebc00e8805000020541002b2b22004353dd002b
:101ecc0006864500c408dd00233b280081864100be
:101edc003d02be002d03be00049ebe000696be0051
:101eec008a02e800c32add00858545008d00780054
:101efc0041029000d102900061039000f103900028
:101f0c00849dbe008695be008080fb000200780098
:101f1c00fffe07008904e8004941880080418000e9
:101f2c000804e000b9ff320010c0b3001ee8b7008f
:101f3c00baff3700b0052000c003b1000583b9001b
:101f4c0006007800c2ff3700c508dd00222b2800f0
:101f5c00810141003302be002303be0094158900a9
:101f6c00a5158900b6158900c71589004302900094
:101f7c00d302900063039000f3039000d415890002
:101f8c00e5158900f615890007168900030a9000eb
:101f9c00930a9000230b9000b30b90001416890049
:101fac0025168900361689004716890083007800ab
:101fbc00410a9000d10a9000610b9000f10b900047
:101fcc0054168900651689007616890087168900d3
:101fdc008080fb000000eb00cdfe0700100020000d
:101fec00404188001ee8b700e1812000e8814000f4
:101ffc0002002800b4052000852520008cff370046
:10200c0012002000e8805000020541002b2b22001a
:10201c004353dd0006864500c408dd00233b280041
:10202c00818641003d02be002d03be00049ebe0011
:10203c000696be008a02e800c32add0085854500ad
:10204c008d00780041029000d10290006103900055
:10205c00f1039000849dbe008695be008080fb003d
:10206c0002007800aafe07008904e80049418800b4
:10207c00804180000804e000abff3a0063ff3700aa
:10208c0022002000e8805000020541002b2b22008a
:10209c004353dd0006864500c408dd00233b2800c1
:1020ac00818641003d02be002d03be00049ebe0091
:1020bc000696be008a02e800c32add00858545002d
:1020cc008d00780041029000d102900061039000d5
:1020dc00f1039000849dbe008695be008080fb00bd
:1020ec00020078008afe07008904e8004941880054
:1020fc00804180000804e0008bff3a0043ff37006a
:10210c0032002000e8805000020541002b2b2200f9
:10211c004353dd0006864500c408dd00233b280040
:10212c00818641003d02be002d03be00049ebe0010
:10213c000696be008a02e800c32add0085854500ac
:10214c008d00780041029000d10290006103900054
:10215c00f1039000849dbe008695be008080fb003c
:10216c00020078006afe07008904e80049418800f3
:10217c00804180000804e0006bff3a0023ff370029
:10218c000080fb0042418000e1812000e88140009a
:10219c00d10f500008003200838f5000fcff3a0032
:1021ac00424188000200e00002003a007a66a80072
:1021bc007a26a800000006008088eb000200e000f0
:1021cc00f5ff32000201e900838f5000f0ff3a0066
:1021dc00f3ff37000080eb000041880010418800bd
:1021ec0020418800304188002828ef007a66a8003a
:1021fc007a26a800000006000080eb000041880051
:10220c006011b8001215890023158900104188004f
:10221c003215890043158900204188005215890028
:10222c006315890030418800721589008315890077
:10223c002828ef007a66a8007a26a800000006007d
:10224c00889fbe000004780019c0b300e70f54004b
:10225c00010034008044eb0010c0b300e14080006a
:10226c00e78f5000010034000040eb00894f500014
:10227c0001003200e0ff0700e84088000904e0009c
:10228c0018003a0068005400212b2200030420009f
:10229c00818141004400dd00243b28000001420004
:1022ac0068004000000042003202be002203be0063
:1022bc008498be008690be003002be002003be0093
:1022cc00c4009800d5009800e6009800f70098002c
:1022dc00f0804000838f5000f3ff3a004f04be00a3
:1022ec00000006004544dd00202b2800880040003b
:1022fc003102be002103be0094158900a51589008a
:10230c00b6158900c715890041029000d1029000d2
:10231c0061039000f1039000d4158900e515890044
:10232c00f615890007168900010a9000910a9000a1
:10233c00210b9000b10b9000141689002516890012
:10234c003616890047168900010478004808900069
:10235c00d808900068099000f80990005016890080
:10236c006116890072168900831689004f04be001d
:10237c0000000600dbff37001a28ef000000060003
:10238c00889fbe008a9fbe008c9fbe003048ab0069
:10239c00f5003200cd408000e1408000e78f500016
:1023ac0069003c00000678001015810021158100a1
:1023bc00b21581000282b800028bb80086824200fe
:1023cc00f21581000283b800028cb80088834300a8
:1023dc0098158100a9158100da158100eb15810093
:1023ec000c0178000210b0000404440085844c00f9
:1023fc000605450087854d00c0158100011681003a
:10240c0000c8de0081d8de000c86e8000100400028
:10241c00c180de00011e50000260e100f2ff3a00b4
:10242c000c10b10098158900a9158900da158900de
:10243c00eb158900101581002115810032168100e1
:10244c000282b800028bb8008682420072168100ac
:10245c000283b800028cb8008883430018168100f0
:10246c00291681005a1681006b1681000c01780028
:10247c000210b0000404440085844c00060545009d
:10248c0087854d00401681008116810000c8de0052
:10249c0081d8de000d1e780001004000c180de00f6
:1024ac00010050001c1e40000260e100f1ff3a00e8
:1024bc0018168900291689005a1689006b1689008e
:1024cc001e48e2000800320000fe2f00e802b600b1
:1024dc008001b30040178800eba2a8007a66a9001f
:1024ec007a26a9001e68ef00eb02ab000400320054
:1024fc00eba2ab009e003a003028ab00b5003a00ce
:10250c00c00120006226b700003c20007626b700f0
:10251c000a000900000000006406f8003608f90003
:10252c007806f8003808f90030fe2f006226b60055
:10253c00f0c32f007626b6004f06be004f05be0036
:10254c004f04be0000000600000678001015810044
:10255c0021158100b21581000282b800028bb800ef
:10256c0086824200f21581000283b800028cb8000a
:10257c008883430098158100a9158100da15810024
:10258c00eb1581000c0178000210b000040444002b
:10259c0085844c000605450087854d00c0158100db
:1025ac000116810000c8de0081d8de000c86e80030
:1025bc00011e40000260e100f4ff3a000c10b10073
:1025cc0098158900a9158900da158900eb15890081
:1025dc003015810041158100321681000282b8004d
:1025ec00028bb80086824200721681000283b8000a
:1025fc00028cb800888343001816810029168100cc
:10260c005a1681006b1681000c0178000210b00084
:10261c000404440085844c000605450087854d0064
:10262c00401681008116810000c8de0081d8de00d2
:10263c000c86e800010040001c1e40000260e10016
:10264c00f3ff3a000c10b100181689002916890006
:10265c005a1689006b16890050158100611581008e
:10266c00b21681000282b800028bb800868242004a
:10267c00f21681000283b800028cb80088834300f4
:10268c0098168100a9168100da168100eb168100dc
:10269c000c0178000210b0000404440085844c0046
:1026ac000605450087854d00c01681000117810085
:1026bc0000c8de0081d8de000c86e8000100400076
:1026cc001c1e40000260e100f3ff3a000c10b10048
:1026dc0098168900a9168900da168900eb1689006c
:1026ec007015810081158100321781000282b800bb
:1026fc00028bb80086824200721781000283b800f8
:10270c00028cb800888343001817810029178100b8
:10271c005a1781006b1781000c0178000210b00071
:10272c000404440085844c000605450087854d0053
:10273c00401781008117810000c8de0081d8de00bf
:10274c000d1e7800010040001c1e40000260e100dc
:10275c00f3ff3a0018178900291789005a178900c6
:10276c006b17890056ff3700dd4080000aff3700e9
:10277c0000fe2f00e802b6000000a0004017880001
:10278c00eba2a9007a66a800c00120006226b7005f
:10279c00003c20007626b7000a000900000000006b
:1027ac006406f8003608f9007806f8003808f900d5
:1027bc0030fe2f006226b600f0c32f007626b6003e
:1027cc004f06be004f05be004f04be0000000600c1
:1027dc005dff370000fe2f00e802b6008001b30059
:1027ec0040178800eba2a8007a66a900c00120005f
:1027fc006226b700003c20007626b7000a000900cc
:10280c00000000006406f8003608f9007806f800ad
:10281c003808f90030fe2f006226b600f0c32f00f6
:10282c007626b6004f06be004f05be004f04be0014
:10283c000000060044ff37000800fa00c001200029
:10284c006626b700003c20007a26b7003a28ef0035
:10285c00500020008041880032a8ef0034a8ef001f
:10286c004608f8003c08f90036a8ef0038a8ef003d
:10287c006881570000802700010020000d0307002d
:10288c0064815700408027000100200009030700e5
:10289c004fb99700dfb997000040eb00ef0f5100e4
:1028ac00e08f590001003e00024078006fb997009c
:1028bc00ffb997008000eb00f4032000840f510057
:1028cc00e08f5900040036003ee8b700310888005c
:1028dc000080fa0000000600ff0061003ee8b7002f
:1028ec00310888000080fa0000000600faff37006b
:1028fc000c00fa00889fbe0091418000a141880025
:10290c003228ef00b04180000004eb000028a30047
:10291c000200320018002000984188000038a30003
:10292c00020032000810a000984188000048a30063
:10293c00020032000820a00098418800c0418000ad
:10294c000068a300020032000830a0009841880003
:10295c000078a300020032000840a00098418800d3
:10296c000088a300020032000850a00098418800a3
:10297c000098a300020032000860a0009841880073
:10298c008100740008846800c344de00d0418000dc
:10299c00e20f5000de0032005e003600e30f500004
:1029ac00d5003200e40f5000a9003200dbfa07001a
:1029bc00e20f500063003200d14180000828a300d0
:1029cc00070032003208ab00900032000100e0003a
:1029dc00d30032003a28ef004608f8003c08f90012
:1029ec000818a300050032003a08e2008200320009
:1029fc003a28ef004608f8003c08f9000808a30044
:102a0c0058003a00d5418000858f500002003200fa
:102a1c00e48f50009200320032428000e14180008d
:102a2c008100510013c0b300940f2000848f50001c
:102a3c00010036008041eb00341f2000848f5000d1
:102a4c0001003600e2418800c00120006626b70074
:102a5c00e28f52005d0032004b003e00e18f5200cd
:102a6c003a003200adfa07008000780000c8bf00c1
:102a7c000080fb00010178000200a20002f0a70018
:102a8c000201ea000201e9004f11de008201680038
:102a9c0012802000124178000281fb000110a2007c
:102aac0001f0a7008100ea008100e900cf08de00f8
:102abc00810f5100010032000310a0000248e20017
:102acc00010032000320a0000348e2005e003a003f
:102adc00003c20007a26b7000338a3000100320026
:102aec007b26a9000328a300010032007b06a90065
:102afc000318a300010032007ae6a9000308a30022
:102b0c00010032007ac6a9004f04be000080fa0012
:102b1c00000006000000e00041003200e10f500010
:102b2c00a2ff3a000900e000a0ff320090fc070071
:102b3c0009006800c2fd070078fa0700e20f500098
:102b4c009dff3a00d5418000b3ff37000304e0003d
:102b5c00010032006686a90085fc07008001780020
:102b6c00dbff37003248ab001d0032003a08e200b0
:102b7c00700032003a28ef008002eb004608f800a3
:102b8c003c08f900a0ff3700e38f52000900320027
:102b9c00e48f5200b3ff3a000304e000020032005d
:102bac006686a9006646a9003ec8bf008081fb006e
:102bbc00c7ff37000304e000010032006646a9009d
:102bcc0061fa070080017800c1ff37000304e000c0
:102bdc00010032006666a90083418000bcff37000b
:102bec0040002000d0418800800278004608f800a0
:102bfc003c08f90084ff370020002000d0418800f9
:102c0c004608f8003c08f9007cff37004000200023
:102c1c00d04188004608f8003c08f90070ff3700e6
:102c2c000868a30051003a000858a3004b003a0072
:102c3c000848a30045003a000838a3005bff3200a7
:102c4c0067fb070059ff37000330a000a0ff3700d7
:102c5c008004fd003ee8b6008004fd0053ff370001
:102c6c00708157000080270001002000110207002e
:102c7c006c81570040802700010020000d020700e6
:102c8c00320880004a11dd004a91de000202b000d9
:102c9c00cf91de00c2bf9f00d3bf9f003ec8bf00d4
:102cac000080fb008000eb000fba97009fba9700e2
:102cbc00840f5000858f58003000320080bf9f0079
:102ccc0091bf9f000080270001002000e701070052
:102cdc00708157000080270001002000fb010700d5
:102cec00688157004080270001002000f701070091
:102cfc00d541800048ff37000900e0002bff32006f
:102d0c0011fa07000900680007fa070027ff3700cf
:102d1c008004fd0030a8b6008004fd0023ff3700be
:102d2c0010002000d04188004608f8003c08f9004b
:102d3c002bff370030002000d04188008002780043
:102d4c004608f8003c08f9002fff370010fb07007d
:102d5c000838a30015ff3200b9ff370051fb0700fc
:102d6c000848a300b4ff3200f8ff3700a1fa0700af
:102d7c000858a300aeff3200f8ff37002fba9700b7
:102d8c00bfba9700840f5100858f59006dff320038
:102d9c0080bf9f0091bf9f00008027000100200092
:102dac00b20107007081570000802700010020004d
:102dbc00c6010700688157004080270001002000f1
:102dcc00c2010700caff3700d1418000e48f5000d8
:102ddc0001003200000006000080d1000002b100aa
:102dec00300888000000060000002300100888004e
:102dfc000621ef000c21ef000e21ef006821ef00ff
:102e0c006a21ef000821ef000070200050088800b4
:102e1c00f00f2000c00b8800d00b8800e00b88005e
:102e2c00f00b8800000c8800100c8800200c880027
:102e3c00300c88007961a90078a1a9007861a900fb
:102e4c007a01a9008481a90084a1a90010002000a6
:102e5c00a20920008107200013102000814978006e
:102e6c0082497800804978007205200061042000b6
:102e7c00031020008149780082497800804978004d
:102e8c000001ab00feff3a0000a1ab00feff3200d8
:102e9c0062a6ef0050ff2f00b0338800c001200065
:102eac0040338800003c2000e03388006626ef00a9
:102ebc007a26ef006a26ef007e26ef007026ef00e0
:102ecc008426ef00f2012000923388003034880011
:102edc007426ef008826ef006e26ef008226ef00a6
:102eec0030002000603388008026ef005fe6a800e9
:102efc009a60a80000088000f00bb2006304200068
:102f0c007405200001102000834878008448780064
:102f1c0080487800f00f2800153f80008500600085
:102f2c0001b0a000113f880001f82f00153f800070
:102f3c00858060009100b300113f8800013f800044
:102f4c00810260000170200085807000013f8800c4
:102f5c00c13e80008102600001d02000858070009d
:102f6c00c13e880001fc2f00a53d800085806000db
:102f7c000120a000a13d8800010880000160a00094
:102f8c0005102000834a7800844a7800814a780032
:102f9c0041032000b111880091062000a111880086
:102fac009211880061c0210081118800c424ef00b7
:102fbc00c5e4a800c404a800caa4ef00c824ef000c
:102fcc009421ef009021ef00910f2000910c8800cc
:102fdc00f2fc2f00a30c8000830061000150a000c4
:102fec00a10c880095e1a8008860a900f3ff2800d7
:102ffc0044058000848161000100230083807000ff
:10300c00410588009860a800f423ef00f623ef0038
:10301c00f823ef00fc23ef00fe23ef000824ef0061
:10302c00f7e3a800f1cf2f00b51f8000858060006a
:10303c000190a000b11f8800f4a3a800f503a8001c
:10304c00f4c3a9000424ef000864a800f403a8004a
:10305c00f5e3a800cc24ef00ce24ef00210a2200d7
:10306c008126880001402000912688000110200054
:10307c00a1268800ce04a800712680008101600082
:10308c00017022008380700071268800cd24a80076
:10309c00f1f32f0064268000848160000360a0009f
:1030ac0063268800c54c2000950a610034ff2f0070
:1030bc0065268000850162000320a000632688003d
:1030cc00cc04a80083ff2f0055058000858161008a
:1030dc000320a000530588009880a8000024ef006e
:1030ec000024ef009823ef009863a80099e3a80050
:1030fc00f3072000031d8800a223ef009a23ef00a2
:10310c009b83a800d624ef00d824ef00e3392000dd
:10311c00d326880023302200e326880003042000f5
:10312c00f3268800d804b600035024008081710077
:10313c00c3268800d724a800604d200010886000aa
:10314c00b3268000030161000240a000b226880073
:10315c00b5268000050062000020a000b026880083
:10316c00d604a800e822ef00e8e2a80000fe2f0039
:10317c00e802b6008001b30040178800ea22ef0095
:10318c00ebe2a800eba2a800a02e200010886000a3
:10319c00ea82a800c0ff2f00ea22b6000000060059
:1031ac004028ef000040eb002138220080487800d6
:1031bc008100e800804878008100e80080487800b1
:1031cc008100e800804878004228ef004428ef0096
:1031dc0000000600889fbe008a9fbe008c9fbe0028
:1031ec008e1f7800f0268000014280000904200028
:1031fc008084540081845400f903b2003e003200f4
:10320c000004eb002c3022008b0f20003e382200f3
:10321c000e05e9006d462800018040006c01780025
:10322c00024078008100e800f103b20001428800fe
:10323c008280fb0081017800830fb2008b8f5100dc
:10324c00240032000204e0004400350020428000db
:10325c00027578000000e80020428800e20f500060
:10326c000200360030002000204288001a4078000e
:10327c000004e00008003200f04f4000060032006d
:10328c00e94f4000040032001142800022428000cd
:10329c00810f51001d0032000804e800888f540093
:1032ac001500340001428000018040006c01780060
:1032bc00024078008100e800f103b200014288006e
:1032cc008280fb0081017800830fb2008b8f51004c
:1032dc00dcff3a00e64f41003100320028003e008e
:1032ec00e84f4100ecff3a009af807000804e800a8
:1032fc00888f5400ebff3c004f0778004f06be0050
:10330c004f05be004f04be00000006001100200057
:10331c00214288000080fb00e283200012417800eb
:10332c000281fb00ef006000810f5100daff3a00d0
:10333c00000fb20001092000810f5000350032004f
:10334c0019003c00f0805000810f5000d2ff3a0071
:10335c001e4078000bf90700cfff3700024d7800b4
:10336c00c408de00e7806000edc078008180fb00bf
:10337c00114288001100200021428800bcff370058
:10338c00e54f410004003200e44f4100c2ff3a0017
:10339c0093f80700c0ff37008cf80700beff37001a
:1033ac007af80700bcff3700010b2000810f50009a
:1033bc000a003200010e2000810f5000b6ff3a00c7
:1033cc00403822009080fb00c708dd001e80fb0007
:1033dc000100700068fa0700afff37001e4078004c
:1033ec0081c7b300814f50001c0032000f003e001b
:1033fc00e14f500015003200a1c4b300814f5000c2
:10340c00a5ff3a00423822001280fb0064fa070044
:10341c00a1ff3700403822001004e000ccff32003e
:10342c001e40780091f807009bff370091c7b3004e
:10343c00814f50000b00320081c0e800814f5000da
:10344c0095ff3a0063fb070093ff370041382200d9
:10345c001180fb005cfe07008fff370066fb070046
:10346c008dff3700c4fb07008bff370032002400b0
:10347c00023b88005420ef00213b8800103b880061
:10348c000500fc0050052000303b8800a00a2000fd
:10349c00303b880061e7a80000000000000000003d
:1034ac0001002800023b800002806000fdff3a0012
:1034bc0000000600a10288001009ba000080e80094
:1034cc001000ba0010019800000006001300240040
:1034dc00033b8800a30f2000a3028800213b880037
:1034ec00103b88000000eb001208bb00f10f20001d
:1034fc000188bb0020002000120190000208bb00d4
:10350c000188bb000500fc0050052000303b880002
:10351c00a00a2000303b880061e7a80000000000f2
:10352c000000000001002800023b800002806000c7
:08353c00fdff3a00000006004b
:020000040000fa
:10354400460800000200000080000000300800006f
:103554000e00000080000000480800005a18000017
:103564008000000000080000180000008000000037
:103574000223000084000000800000003e080000d8
:103584000800000080000000a2200000600200008b
:1035940080000000180800001800000080000000ef
:0435a4000000000023
:020000040000fa
:1035a80012fe0700fffe0700c1f907000bf5070030
:1035b800a2fc0700cffc070007ff0700cff60700b3
:1035c800dcf90700cbfc070003ff0700cbf6070078
:0835d800d8f90700f7ff3700e6
:020000040000fa
:020000040005f5
:045e0000ffff0000a0
:020000040000fa
:020000040005f5
:045e2000ffffff0081
:020000040000fa
:020000040005f5
:045e300008ffff0068
:020000040000fa
:020000040005f5
:045e380063ffff0005
:020000040000fa
:020000040005f5
:045e40009fffff00c1
:020000040000fa
:020000040005f5
:045e4800ffffff0059
:020000040000fa
:020000040005f5
:045e5000deffff0072
:020000040000fa
:020000040005f5
:045e5800ffffff0049
:00000001FF
