:020000040000fa
:080000000001040000000000f3
:020000040000fa
:040008008e02000064
:020000040000fa
:04000c00920200005c
:020000040000fa
:04001000ae0200003c
:020000040000fa
:040014009602000050
:020000040000fa
:040018009a02000048
:020000040000fa
:04001c00ae02000030
:020000040000fa
:04002000ae0200002c
:020000040000fa
:04002400ae02000028
:020000040000fa
:04002800ae02000024
:020000040000fa
:04002c00ae02000020
:020000040000fa
:04003000ae0200001c
:020000040000fa
:040034004a0200007c
:020000040000fa
:0400380004020000be
:020000040000fa
:04003c00ae02000010
:020000040000fa
:04004000ae0200000c
:020000040000fa
:04004400ae02000008
:020000040000fa
:04004800ae02000004
:020000040000fa
:04004c00ae02000000
:020000040000fa
:04005000ae020000fc
:020000040000fa
:04005400ae020000f8
:020000040000fa
:04005800ae020000f4
:020000040000fa
:04005c00ae020000f0
:020000040000fa
:04006000ae020000ec
:020000040000fa
:04006400ae020000e8
:020000040000fa
:04006800ae020000e4
:020000040000fa
:04006c00ae020000e0
:020000040000fa
:04007000ae020000dc
:020000040000fa
:040074005002000036
:020000040000fa
:04007800ae020000d4
:020000040000fa
:04007c00ae020000d0
:020000040000fa
:04008000ae020000cc
:020000040000fa
:04008400ae020000c8
:020000040000fa
:04008800ae020000c4
:020000040000fa
:04008c00ae020000c0
:020000040000fa
:04009000ae020000bc
:020000040000fa
:04009400ae020000b8
:020000040000fa
:04009800ae020000b4
:020000040000fa
:04009c00ae020000b0
:020000040000fa
:0400a000ae020000ac
:020000040000fa
:0400a400ae020000a8
:020000040000fa
:0400a800ae020000a4
:020000040000fa
:0400ac00ae020000a0
:020000040000fa
:0400b000ae0200009c
:020000040000fa
:0400b400ae02000098
:020000040000fa
:0400b800ae02000094
:020000040000fa
:0400bc00ae02000090
:020000040000fa
:0400c000ae0200008c
:020000040000fa
:0400c400ae02000088
:020000040000fa
:0400c800ae02000084
:020000040000fa
:0400cc00ae02000080
:020000040000fa
:0400d000ae0200007c
:020000040000fa
:0400d400ae02000078
:020000040000fa
:0400d800ae02000074
:020000040000fa
:0400dc00ae02000070
:020000040000fa
:0400e000ae0200006c
:020000040000fa
:0400e400ae02000068
:020000040000fa
:0400e800ae02000064
:020000040000fa
:0400ec00ae02000060
:020000040000fa
:0400f000ae0200005c
:020000040000fa
:0400f400ae02000058
:020000040000fa
:0400f800ae02000054
:020000040000fa
:0400fc00ae02000050
:020000040000fa
:04010000ae0200004b
:020000040000fa
:04010400ae02000047
:020000040000fa
:04010800ae02000043
:020000040000fa
:04010c00ae0200003f
:020000040000fa
:04011000ae0200003b
:020000040000fa
:04011400ae02000037
:020000040000fa
:04011800ae02000033
:020000040000fa
:04011c00ae0200002f
:020000040000fa
:04012000ae0200002b
:020000040000fa
:04012400ae02000027
:020000040000fa
:04012800ae02000023
:020000040000fa
:04012c00ae0200001f
:020000040000fa
:04013000ae0200001b
:020000040000fa
:04013400ae02000017
:020000040000fa
:04013800ae02000013
:020000040000fa
:04013c00ae0200000f
:020000040000fa
:04014000ae0200000b
:020000040000fa
:04014400ae02000007
:020000040000fa
:04014800ae02000003
:020000040000fa
:04014c00ae020000ff
:020000040000fa
:04015000ae020000fb
:020000040000fa
:04015400ae020000f7
:020000040000fa
:04015800ae020000f3
:020000040000fa
:04015c00ae020000ef
:020000040000fa
:04016000ae020000eb
:020000040000fa
:04016400ae020000e7
:020000040000fa
:04016800ae020000e3
:020000040000fa
:04016c00ae020000df
:020000040000fa
:04017000ae020000db
:020000040000fa
:04017400ae020000d7
:020000040000fa
:04017800ae020000d3
:020000040000fa
:04017c00ae020000cf
:020000040000fa
:04018000ae020000cb
:020000040000fa
:04018400ae020000c7
:020000040000fa
:04018800ae020000c3
:020000040000fa
:04018c00ae020000bf
:020000040000fa
:04019000ae020000bb
:020000040000fa
:04019400ae020000b7
:020000040000fa
:04019800ae020000b3
:020000040000fa
:04019c00ae020000af
:020000040000fa
:0401a000ae020000ab
:020000040000fa
:0401a400ae020000a7
:020000040000fa
:0401a800ae020000a3
:020000040000fa
:0401ac00ae0200009f
:020000040000fa
:0401b000ae0200009b
:020000040000fa
:0401b400ae02000097
:020000040000fa
:0401b800ae02000093
:020000040000fa
:0401bc00ae0200008f
:020000040000fa
:0401c000ae0200008b
:020000040000fa
:0401c400ae02000087
:020000040000fa
:0401c800ae02000083
:020000040000fa
:0401cc00ae0200007f
:020000040000fa
:0401d000ae0200007b
:020000040000fa
:0401d400ae02000077
:020000040000fa
:0401d800ae02000073
:020000040000fa
:0401dc00ae0200006f
:020000040000fa
:0401e000ae0200006b
:020000040000fa
:0401e400ae02000067
:020000040000fa
:0401e800ae02000063
:020000040000fa
:0401ec00ae0200005f
:020000040000fa
:0401f000ae0200005b
:020000040000fa
:0401f400ae02000057
:020000040000fa
:0401f800ae02000053
:020000040000fa
:0401fc00ae0200004f
:020000040000fa
:100200002f3922000e7f24000e018800000000001c
:10021000000020000000e000020032000001200089
:100220002002880014000700cd0007000000e00055
:1002300003003a0040b7210001002000020037000f
:100240000000200001002000810f7000010032003a
:1002500014000700000020000000e000020032004f
:100260000000020000000000a61b020000000000c9
:100270000040da000000fe004440a900c01b20003e
:100280000000e00003003200002020009001880000
:100290004440a800000006008a1f78008b1f7800e9
:1002a00000000600a1028800800478000000eb0036
:1002b0001f003700e284440054a0b4009905ba003e
:1002c000e284440054a0b4009906ba00e2844400d9
:1002d00054a0b4000006eb00476fde00fd07b2003b
:1002e000ae018800636ce10003003a00eaff0700fa
:1002f0000000eb000e003700606ce10008003a00df
:10030000004deb000a05e800020039003420ec0043
:100310000af0a0008b05e900f9ff3e000400370059
:100320006168e100010032000086eb000b0007006d
:1003300019c7ba001905ba000e04e00003003a001c
:100340000a00e000dbff3a0000000600fe07b200f2
:10035000ae0288008a047800f5ff37000cd0a300b5
:10036000e20f4d001c00390089027800354dba00bb
:100370000a05e800020039003420ec000af0a00071
:100380008b05e9000f003200254dba000a05e80090
:10039000020039003420ec000af0a0008b05e900cf
:1003a000080032000c00e0000600320015cdba0053
:1003b0000a05e800020039003420ec000af0a00031
:1003c0008b05e9008984e80054a0b4000b00e0002c
:1003d000e2ff3a00000006009902ba00055d7800cd
:1003e0008b05e900f7ff3200c82ade00055d7800c2
:1003f0008b05e900f3ff32000c00e000f1ff320052
:1004000019ddba00eeff37003600f800809fbe000d
:10041000829fbe00849fbe00869fbe00ce84ab003c
:1004200015003a00cea4ab0007003a008880a9006e
:100430004f03be004f02be004f01be004f00be0082
:100440003600f90000400600e01a2200f707070016
:10045000ce84a900cea4a9008880a9004f03be00c5
:100460004f02be004f01be004f00be003600f90033
:1004700000400600f4ff3700e00a2200eb07070007
:10048000ce84a900cea4a900cea4ab00e7ff320021
:10049000edff37005228ec008860a90000400600fc
:1004a0003600f800809fbe00829fbe00849fbe0081
:1004b000869fbe007006ab0014003a007026ab00a9
:1004c00008003a007026ef008a60a9004f03be00c2
:1004d0004f02be004f01be004f00be003600f900c3
:1004e000004006006e0407007026ef008a60a90035
:1004f0004f03be004f02be004f01be004f00be00c2
:100500003600f90000400600f6ff370085040700ba
:100510007026ab00ebff3200f2ff37008020a9000d
:10052000ffff37008060a900ffff37008040a9006f
:10053000ffff37008080a900ffff37008020a9005f
:10054000ffff37008060a900ffff37008040a9004f
:10055000ffff37008080a900ffff3700ffff370053
:040560000000050092
:020000040000fa
:100564000000000000000000800000000100000006
:100574000000000000000000000000001000000067
:100584000000000000000000000000001000000057
:100594000000000000000000000000001000000047
:1005a40000000000000000007f00000002000000c6
:1005b40000000000000000008100000002000000b4
:1005c40000000000000000008000000002000000a5
:1005d4000000000000000000000000001000000007
:1005e4000000000000000000800000000200000085
:1005f400000000000080000080ff000002000000f6
:1006040000000000000000000000000010000000d6
:1006140000000000000000000000000010000000c6
:1006240000000000000000007f0000000200000045
:10063400000000000080000081ff000002000000b4
:100644000000000000000000810000000200000023
:1006540000000000008000007fff00000200000096
:100664000000000000000000800000000100000005
:10067400000000000040000080ff000001000000b6
:100684000000000000000000000000001000000056
:100694000000000000000000000000001000000046
:1006a40000000000000000008000000001000000c5
:1006b4000000000000000000000100000200000033
:1006c4000000000000000000000000001000000016
:1006d4000000000000000000000000001000000006
:1006e4000000000000000000800000000100000085
:1006f400000000000018000080ff0000010000005e
:1007040000000000000000000000000010000000d5
:1007140000000000000000000000000010000000c5
:1007240000000000000000007f0000000200000044
:100734000000000000000000820000000200000031
:100744000000000000000000800000000200000023
:100754000000000000800000000100000200000012
:100764000000000000000000800000000300000002
:100774000000000000000000000000001000000065
:100784000000000000000000ff0000000300000063
:1007940000000000008000000101000003000000d0
:1007a40000000000000000008000000004000000c1
:1007b400000000000080000080ff00000400000032
:1007c40000000000000000008000000003000000a2
:1007d4000000000000800000400000000400000051
:1007e4000000000000000000800000000300000082
:1007f400000000000040000080ff00000300000033
:1008040000000000000000000001000003000000e0
:1008140000000000008000007f00000004000000d1
:100824000000000000000000800000000300000041
:10083400000000000018000080ff0000030000001a
:100844000000000000000000810000000300000020
:1008540000000000008000007f0000000300000092
:100864005649000004000000968a000004000000bd
:10087400b8cf000004000000f618000005000000d6
:100884008e66000005000000c4b8000005000000ea
:10089400de0f000006000000256c000006000000ca
:1008a400eacd0000060000007e35000007000000cd
:1008b4003ba30000070000007f17000008000000b1
:1008c400ac920000080000000303000003030000d2
:0808d400020200000301000014
:020000040000fa
:1008dc000104e00013003500104190000204e00018
:1008ec0001003a0001487800640040000281fb00de
:1008fc004211dd00020040000001eb0003c8b30010
:10090c0000027800b0cf1100040032000201e800b0
:10091c00e40f5100faff3a0000000600014a78008b
:10092c0000000600104190000204e00002003a00b2
:10093c0003c3b30003487800640040000281fb004d
:10094c004211dd000200400001487800114098007f
:10095c002140980031409800000006003606070040
:10096c0000c0eb00a10a2200804878008100e8005a
:10097c00804878008100e800804878008100e80019
:10098c00804878002628ef0000000600881f7800b9
:10099c0000047800f1ff070018407800e1c5b300af
:1009ac00814f500009003600008620000048eb0003
:1009bc000000e8000048eb0011c0b3006d005000cf
:1009cc00014878004f04780000000600004ce80055
:1009dc004f04780000000600fcff3700ea87470050
:1009ec00889fbe008a9fbe008c9fbe008e1f780021
:1009fc00408520000048eb00d0072000b042880062
:100a0c0090428000d0428800c18520008008eb0015
:100a1c008180e8008048eb008100e8008048eb0012
:100a2c008100e8008048eb008100e8008048eb0082
:100a3c008100e8008048eb008100e80080c8eb00f2
:100a4c0031002000914188002868ef002a28ef002f
:100a5c003668ef003828ef002628ef00a041880008
:100a6c002005890030058900400589002428ef0005
:100a7c002068ef002168ef002268ef002368ef0088
:100a8c0001c8b300a00a2200014878000000e80069
:100a9c00014878000000e800014878000000e800f8
:100aac00014878004b8620000b037800e382450058
:100abc000002eb000cc3b3000045eb00471820000c
:100acc00030620000c4b78001a439800804aeb0078
:100adc0007a4b90064004400008045000001eb004d
:100aec00014878001140980021409800314098004e
:100afc000201e80064004000830f5100f8ff3a0047
:100b0c00f4fa9f000402e8004618b0004518b00043
:100b1c00f00f5200ebff3a0000c3b300804d780099
:100b2c0045c0b3005286200005497800630141009e
:100b3c0000497800640141000049780064014100db
:100b4c000049780064014100004978004217b00068
:100b5c00004978000201e800054978006301410072
:100b6c0000497800c2c3b300039f2000824978007b
:100b7c00e481410080497800e48141008249780099
:100b8c004317b000804978008301e800854978005c
:100b9c00e381410080497800e4814100824978007a
:100bac0073c3b30084b72000034a78006402420088
:100bbc00024a78004417b000004a78000402e800aa
:100bcc00054a780063024200004a7800a7c3b300cc
:100bdc0064024200074a780064024200024a78002c
:100bec0036c3b30064024200064a78004417b000d2
:100bfc00004a780084c0b30056e72000044b78000c
:100c0c0063034300004b780064034300014b7800fe
:100c1c0064034300004b780064034300004b7800ee
:100c2c0064034300014b780064034300004b7800dd
:100c3c0064034300004b780064034300014b7800cd
:100c4c004616b000004b78000603e800044b780011
:100c5c0063034300004b780064034300004b7800af
:100c6c0064034300014b780064034300004b78009d
:100c7c0064034300014b780064034300004b78008d
:100c8c0016c8b30048012100064c780064044400e7
:100c9c00014c78004816b000004c78000804e800bd
:100cac00044c780063044400004c78006404440055
:100cbc00064c780064044400034c7800640444003f
:100ccc00004c780064044400014c78006404440037
:100cdc00024c780064044400014c78006404440025
:100cec00024c78004816b000004c78000804e8006c
:100cfc00044c780063044400004c7800bac2b30082
:100d0c00640444000a4c780064044400034c7800ea
:100d1c0064044400004c780064044400064c7800e1
:100d2c0064044400014c780064044400024c7800d4
:100d3c0064044400014c78004816b000004c780064
:100d4c000804e800054c780063044400004c78006b
:100d5c0064044400004c78000804e800034c78005c
:100d6c00f8c3b300ea482100084d78000a85e80072
:100d7c00004d780064054500004d78000a05e80038
:100d8c00034d78000a05e800084d7800281720006c
:100d9c000a044400004c78000804e800054c780074
:100dac0063044400004c780064044400004c780058
:100dbc000804e800034c780008c4b300ca17b0005c
:100dcc00084d78000a85e800004d78006405450060
:100ddc00004d78000a05e800034d78000a05e8008c
:100dec00084d7800281720000a044400004c7800b5
:100dfc000804e800054c780063044400004c7800bb
:100e0c0064044400024c780064044400004c7800f4
:100e1c000804e800034c780063044400024c78009a
:100e2c004817b000004c78000804e800054c780026
:100e3c00e3024400804a7800e7024400824a7800ca
:100e4c00e4824200804a78008502e800874a7800f4
:100e5c00e3824200824a78004517b000804a78004d
:100e6c008502e800844a7800e3824200804a7800d8
:100e7c008502e800824a7800e3824200804a7800ca
:100e8c00e4824200814a7800e4824200814a780080
:100e9c00e4824200804a780055c3b3008819b00040
:100eac00054c780063044400004c78000804e8000a
:100ebc00024c780063044400014c78006404440044
:100ecc00014c78004816b000004c78000804e8008b
:100edc00044c780063044400004c78000804e800db
:100eec00024c780063044400014c78006404440014
:100efc00004c780064044400014c78006404440005
:100f0c00004c78000804e800034c780063044400ab
:100f1c00004c78000804e800024c7800630444009c
:100f2c00014c780064044400004c78004816b00072
:100f3c00004c78000804e800044c7800630444007a
:100f4c00004c78000804e800034c7800630444006b
:100f5c00064c78000804e800064c78006304440052
:100f6c00024c780064044400014c78006404440092
:100f7c00054c780064044400014c7800640444007f
:100f8c00054c78001ac3b300640444000a4c780082
:100f9c000804e800054c78003816b000004c7800c6
:100fac000804e800044c780063024400004a78000e
:100fbc0067024400034a78008401e8008249780003
:100fcc00e401420080497800e481410081497800c5
:100fdc00e480410080487800688041000748780030
:100fec0069804100024878006300400006487800a0
:100ffc000000e800064878006300400005487800cf
:10100c000020280001002000f0b79f0081bf9f0046
:10101c00eec5b3007fb497008fbc97000820b100d9
:10102c000980b100768157000800be008a090700cc
:10103c005fb19700efb1970061005100e08059005b
:10104c00e30f4000e08f480020003e004fe997007e
:10105c003fe897000040e9008e4f50001b003e0017
:10106c00ef4f510019003e000281fb004018200098
:10107c000091b900028145007fb697008fbe9700a2
:10108c00cc07b1000d80b100640541000800be0022
:10109c007109070064044400e0844c008c0f540078
:1010ac008d8f5c00090032000a0178006405410054
:1010bc000800be006809070064044400e0844c008a
:1010cc008c0f54008d8f5c00f7ff3a007fb09700b7
:1010dc008fb897000020b0000180b000f0b79f00df
:1010ec0081bf9f000220200013002000820f5000bf
:1010fc00838f5800c7ff3a004f0778004f06be0099
:10110c004f05be004f04be00af00b100000006004a
:10111c00e6874700889fbe008a9fbe008c9fbe005a
:10112c008e1f780028c8bf0046003a003648e200ff
:10113c0044003a002048e200060032007241800070
:10114c009142800002815000d1072000810f510094
:10115c00a0003e002148e2000600320082418000df
:10116c009342800002815100d1072000810f510071
:10117c0096003e002248e20006003200d241800078
:10118c009442800002015200d1072000810f5100cf
:10119c008c003e002348e2000600320062418000d1
:1011ac009142800002815000813e2000810f51004d
:1011bc0082003e00214180000100e0000a00320064
:1011cc008100e90081804000420a2200628178009f
:1011dc009342800002815100b15d2000810f5100cb
:1011ec00010036002428ef000004e0002200320049
:1011fc0030418000e1428000808f50008500320039
:10120c0091428000d141880012c0b300248220009a
:10121c00024a7800d1428800e042880040852000d4
:10122c0014c0b300904f1200220032004f07780018
:10123c004f06be004f05be004f04be006f00b1004c
:10124c000000060092428000a1852000110151008f
:10125c00c15d2000810f5100b6ff3600bffd0700b5
:10126c002868ef003668ef00408520000048eb004e
:10127c000040eb00afff37003648e2005700320069
:10128c0030418000e1428000808f5000e7ff320047
:10129c000008a300daff3a0091428000d142880096
:1012ac00e04288004085200014c0b300904f12002b
:1012bc00deff3a006a014000124078008200e8002c
:1012cc0091407800814f5000080032008281e80084
:1012dc001304e00005003a00e30541001b04e000a4
:1012ec0002003a0001497800014078008083fb003d
:1012fc004218200002b9b9005086200060427900e3
:10130c000404e000c9ff32000e8620001e83fb009f
:10131c008602e8000482fb00110009008402d80058
:10132c0081bf9f00a90a22001a0620000abdb9003d
:10133c00010278008a0042008100e800420ddd00c5
:10134c004c8620000a0546000004eb008e05e800e0
:10135c00820678004230dd00080040000d0040009d
:10136c0064004000ec4078008180fb000008200005
:10137c00808f5000050032001b04e0003500320065
:10138c0010c8b3009a4f10000500320019407800c5
:10139c000004e000010034009003070080cceb0057
:1013ac000804e8008904e8000a05e800e40f54008a
:1013bc00410032001e83fb00e6ff37002368ef007c
:1013cc007cff37002268ef0072ff37002168ef00c6
:1013dc0068ff37002068ef005eff37009142800005
:1013ec00a08520001081500064005000900f510027
:1013fc008eff390030418000d1428800e0428800e5
:10140c004085200014c0b300904f120087ff3a00b3
:10141c00a8ff37001b8620001b04e00083ff32006e
:10142c00914280006781550092815000698155007e
:10143c00928f51007dff3900d1428800e042880034
:10144c004085200014c0b300904f120077ff3a0083
:10145c0098ff3700f0072000808f5000d0ff3c0031
:10146c003386200013417800e14f41002d003200fb
:10147c000281fb0044862000e4c17e008381fb00d6
:10148c00030151008280400025003300808f500002
:10149c0024003400e0ef9f00940207006fe99700ee
:1014ac00824c78000804e8008904e8000a05e8008a
:1014bc00e40f5400bfff3a00108620001b04e0002c
:1014cc000a0032008ff19700034f78000048eb00c0
:1014dc004f0778004f06be004f05be004f04be00fc
:1014ec006f00b1000000060056ff370011c0b300ba
:1014fc00014878005208f8003a08f90024822000cc
:10150c00014a78004f0778004f06be004f05be0019
:10151c004f04be006f00b1000000060049ff370009
:10152c008000eb0001407800e1ef9f006f020700a4
:10153c006fe99700824c7800daff37004085200075
:10154c001080fb0000000600f18520008048780028
:10155c00eb8050001104e00002003a00ea804000e9
:10156c008048780000000600f08520001080fb0009
:10157c000000060092418000800069000118a30061
:10158c00040032005208f8003408f9002868ef0013
:10159c002a28ef000108a300020032003668ef0091
:1015ac003828ef0090418800000006009041800030
:1015bc00000006003208ab000a0032002848e200a6
:1015cc0008003a003648e20006003200c0418000b4
:1015dc000000e00004003a0050002000c0418800e8
:1015ec002628ec00000006000000e900c04188003d
:1015fc00000006003208ab001300320028c8bf0000
:10160c0011003a0011c0b300628320000149780038
:10161c003828ef002628ef000286200000497800c9
:10162c000201e80000497800650051000008eb0059
:10163c0090428000d04288000280e80000c8eb0095
:10164c006d00510001487800000006003208ab0024
:10165c00060032002848e20004003a0010c0b30033
:10166c0036e8b7004185200080487800000006006d
:10167c003208ab000200320028c8bf000100320063
:10168c00000006003668ef00418520008048780095
:10169c00b2fc37003228ab00110032002848e200bf
:1016ac001000320090428000a14180008100500067
:1016bc00f38f50000a003600a04188005041800092
:1016cc000000e00011003a008100d100c142880006
:1016dc00904180004280de00504188002628ec00ba
:1016ec00000006005208f8003408f90010c0b300de
:1016fc0028e8b700904180004280de00504188000d
:10170c001000200030418800000006000000e900b5
:10171c0050418800000006003228ab000d0032005a
:10172c00008620000048eb000000e8000048eb00b9
:10173c0030418000e042880090428000d042880016
:10174c003086200000c8eb0011c0b3006f005000c1
:10175c000148780000000600881f780000447800db
:10176c0040852000104078000004e0002f0032007b
:10177c00e14f500038003200e24f500002003200be
:10178c004f047800000006005208f8003008f900f9
:10179c0010c0b30021e8b700e08520001081fb00e9
:1017ac00401820000091b900418620000100410042
:1017bc00258620001504e0001500320003c3b30099
:1017cc00034878008101e800828141008049eb00e8
:1017dc008381e8008049eb006401410081004100f5
:1017ec008001eb0002c8b300040620008248780098
:1017fc0092409800a2409800b24098008301e80003
:10180c00e4804000848f5100f8ff3a00804aeb00de
:10181c00884078002efc070008407800b3010700d0
:10182c004f04780000000600d7ff37005208f8007c
:10183c002e08f90010c0b30020e8b700084078006b
:10184c00aa01070030862000084878004f04780071
:10185c0000000600ccff37005208f8002e08f900f3
:10186c0020e8b70030862000084878004f04780044
:10187c0000000600c4ff370041852000914078002d
:10188c000104e00017003200e2cf500001003200ea
:10189c0000000600e18520009180fb00140620006a
:1018ac00048ab900421820000289b900820078002d
:1018bc0052862000e2c178008381fb0084814100c4
:1018cc008301e800c219dd000201e900e2c17900e0
:1018dc0080cf5100eeff3a00028040000000e8008b
:1018ec002afc37003d023700e6874700889fbe0080
:1018fc008a9fbe008c9fbe008e1f78004085200002
:10190c00104078000004e0001a003a002348e2007e
:10191c0025003a00e08520001087fb00700447008a
:10192c004b44dd008004eb000c6020000d00200017
:10193c000806460089864e000805be0072815700d5
:10194c000a00be00440707007fb097008fb89700cd
:10195c00e10f4000e08f48003b0032008c0f550037
:10196c008d8f5d00160032000a20b0000b80b00095
:10197c00f2ff3700e24f50000b003a00e0852000e8
:10198c009080fb00401820000088b9004886200099
:10199c000004440001c8b30008007800ccfb070029
:1019ac000800e800f9fb07004f0778004f06be005f
:1019bc004f05be004f04be006f00b10000000600d2
:1019cc000800be00120707004218200002f1b900ff
:1019dc0040862000020140004b1820008285450003
:1019ec00640541000800be002107070064044400a0
:1019fc00e0844c008b0f5500080032000a0178007f
:101a0c00640541000800be00190707006404440087
:101a1c00e0844c008b0f5500f8ff3a005208f80098
:101a2c002c08f90010c0b30023e8b7004f0778006a
:101a3c004f06be004f05be004f04be006f00b10044
:101a4c0000000600deff37004218200002f1b9004a
:101a5c004086200002014000491820008284440086
:101a6c00640441000a00be0001070700640545003c
:101a7c00e0854d00890f5400e8ff32000801780022
:101a8c00f7ff3700b5fb07004185200011407800b7
:101a9c00e14f500007003600e24f500001003200c9
:101aac0000000600008620000048eb008048eb0098
:101abc00000006006c8040000048eb0012c0b30030
:101acc006e8040000248780020c0b3008048780047
:101adc0000000600881f78004f0207000004780001
:101aec009efb070041852000114178000204e000b4
:101afc0005003200e24f5100030032008048eb0039
:101b0c004f04780000000600808520000008eb00e0
:101b1c00934280000081e9000080e80012885100a7
:101b2c0030418000e04288006a0041000048eb0030
:101b3c006b0041000048eb000800e00002003a0096
:101b4c000080e80000c8eb002848e20001003200e9
:101b5c002a28ef0010c0b300804878004f047800aa
:101b6c0000000600e8ff3700204180009142800011
:101b7c00420a22008001400001b179000000e80017
:101b8c0020418800e30f50000100320000000600e5
:101b9c002428ef006400410010007800120050006f
:101bac004300de00b0428800d142880000000600ed
:101bbc00889fbe004085200010407800e14f500007
:101bcc0012003200e24f5000020032004f04be00ff
:101bdc0000000600e08520001084fb004018200067
:101bec0000c4b900408620000804400011c8b300ae
:101bfc000800780036fb07000800e80063fb0700cc
:101c0c004f04be0000000600f2ff3700d6ff0700ad
:101c1c004f04be0000000600eeff3700889fbe0098
:101c2c008a1f78008c9fbe008000780001804000e5
:101c3c00e280200062017800e10f41004700320091
:101c4c004811dd0000002600800f510047003c00c9
:101c5c00c04080000a08b40002014000520033006a
:101c6c00420add00e02f2200040040001003be00f9
:101c7c00c33cde00cd38dd004334de000884700048
:101c8c000803530089835b00cf90de0006034100fc
:101c9c00878348000688be001648e20002003a001e
:101cac003c68ab00040032004d38dd004331de00ef
:101cbc0002017000c339de00c891de00c5002000af
:101ccc00110009008501d800c20add00204328005c
:101cdc00850240001504be00ea2a220004054500d6
:101cec008100e800c208dd00010040003003140050
:101cfc00a0831c0002007800f00fb2006102b90052
:101d0c0004b8b90006aeb900000046000432b800b1
:101d1c0085024000482bdd004820de0000007300e7
:101d2c00c828de000000440081804c00b4aa2200c8
:101d3c00049ab9008581d1004f91de0002815100d7
:101d4c00690111000201e900030033008100d10098
:101d5c000080d300fbff3700008dbe004f06be0095
:101d6c004f0578004f04be0000000600c208dd00dd
:101d7c00e02a2200010040000008eb00301078003f
:101d8c00e02f2200810040000200200033002000e0
:101d9c008288be004f06be004f0578004f04be007f
:101dac0000000600f1ff37000001eb00acff37002c
:101dbc000428ef000a28ef000c28ef000228ef009f
:101dcc000028ef001828ef000668ef001668ef00f7
:101ddc000828ef006000b800701589008115890093
:101dec000ea8ef0090158900a115890010a8ef002e
:101dfc00b0158900c115890012a8ef00d015890013
:101e0c00e115890014a8ef007a66a8007a26a800cc
:101e1c00e02b220002042000000141008000eb00b6
:101e2c000008eb0030107800210098003100980079
:101e3c0068004000820f5000f9ff3a0000000600d5
:101e4c00881f7800904280001e08e30012003200c8
:101e5c00f0408800e34080004f99de0003016900e8
:101e6c000201410002f0a200644080000490b9001d
:101e7c0001017800c24088009318b000e34088004c
:101e8c00d84080000800780064ff07000804e800d0
:101e9c0063046400d84088004f04780000000600fa
:101eac0020408000000006006700b90002002200fc
:101ebc00f3ff2f0000004100818049004b09dd0039
:101ecc004500de0000007100504088000000060054
:101edc000004b1004900dd0010408800000006003d
:101eec00000040006040880000000600889fbe0093
:101efc008a9fbe008c9fbe0021408000e78f50005f
:101f0c006d0034004a4080008a04780009f0a70074
:101f1c008904ea008904e900cf4cde000904e000e2
:101f2c0028003a00784080001668ef000800e000b6
:101f3c00320035001008e2009e0035001208e20065
:101f4c009e0035001408e2009e003500e041800040
:101f5c000008a3000200320010c0b30006e8b7006e
:101f6c00e0802000e601400001002800b2052000be
:101f7c0084252000e10f44000e003200f80fb2005f
:101f8c00820f540042003c00fb0f540041003c0007
:101f9c0008502b00888f500001003d00880078000d
:101fac00830f50003e00320050047800e10f4400d3
:101fbc00f2ff3a004f06be004f05be004f04be00b4
:101fcc00000006006011b8007215890083158900a5
:101fdc000ea8ef0092158900a315890010a8ef0038
:101fec00b2158900c315890012a8ef00d21589001b
:101ffc00e315890014a8ef001668ef000001eb0050
:10200c00e880500082014100e82b2200431bdd00d8
:10201c0006064400c408dd002b3b280081864500e1
:10202c003d02be002d03be00049ebe000696be00ff
:10203c000303e8004333dd00060444008d00780000
:10204c0041029000d102900061039000f1039000d6
:10205c00049cbe000694be000080fb00e1802000c2
:10206c0080b0790002007800ecfe07000a05e80059
:10207c004a408800e04180000904e000530032002f
:10208c007840800010c0b30006e8b700b4ff3700fa
:10209c00b8052000c803b10004c4b900bdff370067
:1020ac00014088004f06be004f05be004f04be0025
:1020bc0000000600c3ff3700c508dd00222b2800f6
:1020cc00810141003302be002303be00f4158900d8
:1020dc000516890016168900271689004302900000
:1020ec00d302900063039000f30390003416890030
:1020fc00451689005616890067168900030a900058
:10210c00930a9000230b9000b30b90007416890077
:10211c008516890096168900a71689008300780019
:10212c00410a9000d10a9000610b9000f10b9000d5
:10213c00b4168900c5168900d6168900e7168900e1
:10214c0011c0b3000808e2000f00340065812000c4
:10215c00814a78000084fb00784088000000eb0086
:10216c00aefe0700100020004040880006e8b700d3
:10217c00e0802000e601400001002800b2052000ac
:10218c00842520007bff37008040eb006581200018
:10219c00814a78000084fb00784088000000eb0046
:1021ac009efe0700100020004040880006e8b700a3
:1021bc00efff37001200200091ff370022002000b3
:1021cc008fff3700320020008dff370078408000f1
:1021dc000008a30062ff32005fff37000080fb00a5
:1021ec0042408000c1802000e8814000d10f5000a7
:1021fc0008003200838f5000fcff3a0042408800f8
:10220c000200e00002003a007a66a8007a26a800d4
:10221c00000006000002780004f0a000840878009a
:10222c000200e000f3ff32000201e900838f50004e
:10223c00eeff3a00f1ff3700c0802000e8004000bc
:10224c000080e80010f0a000810f5000fcff3a0065
:10225c000828ef007a66a8007a26a800000006007d
:10226c000080eb00704088006011b8007215890086
:10227c00831589008040880092158900a315890078
:10228c0090408800b2158900c3158900a0408800d1
:10229c00d2158900e31589001668ef000828ef00b5
:1022ac007a66a8007a26a80000000600889fbe0067
:1022bc000004780020408000880f5000220032007b
:1022cc0019c0b300e70f540025003c0011c0b30047
:1022dc00e70f50001e003c0089cf50000100320077
:1022ec00dfff0700284088000904e00021003a00c5
:1022fc0068005400e12b220003042000818141007e
:10230c004400dd00243b280000014200680040002e
:10231c00000042003202be002203be008498be00c0
:10232c008690be003002be002003be00c4009800a0
:10233c00d5009800e6009800f7009800f080400067
:10234c00838f5000f3ff3a004f04be0000000600dc
:10235c008040eb0089cf5000e1ff3a00e1ff3700ed
:10236c008044eb0011c0b300e70f5000daff3400db
:10237c00f7ff37004544dd00202b28008800400083
:10238c003102be002103be00f41589000516890038
:10239c00161689002716890041029000d102900080
:1023ac0061039000f10390003416890045168900f2
:1023bc005616890067168900010a9000910a900050
:1023cc00210b9000b10b90007416890085168900c2
:1023dc0096168900a7168900010478004808900019
:1023ec00d808900068099000f8099000b016890090
:1023fc00c1168900d2168900e31689004f04be006d
:10240c0000000600d2ff37000a28ef000c28ef006e
:10241c000228ef000000060040408000000006008b
:10242c00889fbe008a9fbe008c9fbe003c48ab00bc
:10243c00f50032000d40800021408000e78f5000f5
:10244c0069003c0000067800701581008115810040
:10245c00121681000282b800028bb80086824200fc
:10246c00521681000283b800028cb80088834300a6
:10247c00f8158100091681003a1681004b1681006f
:10248c000c0178000210b0000404440085844c0058
:10249c000605450087854d002016810061168100d8
:1024ac0000c8de0081d8de000c86e8000100400088
:1024bc00c180de00011e50000260e100f2ff3a0014
:1024cc000c10b100f8158900091689003a1689001c
:1024dc004b168900701581008115810092168100c0
:1024ec000282b800028bb80086824200d2168100ac
:1024fc000283b800028cb8008883430078168100f0
:10250c0089168100ba168100cb1681000c01780067
:10251c000210b0000404440085844c0006054500fc
:10252c0087854d00a0168100e116810000c8de00f1
:10253c0081d8de000d1e780001004000c180de0055
:10254c00010050001c1e40000260e100f1ff3a0047
:10255c007816890089168900ba168900cb1689006d
:10256c000648e2000800320000fe2f00e802b60028
:10257c008001b30040178800eba2a8007a66a9007e
:10258c007a26a9000668ef00eb02ab0004003200cb
:10259c00eba2ab009e003a003c28ab00b5003a0021
:1025ac00c00120006226b700003c20007626b70050
:1025bc000a000900000000006406f8004208f90057
:1025cc007806f8004408f90030fe2f006226b600a9
:1025dc00f0c32f007626b6004f06be004f05be0096
:1025ec004f04be0000000600000678007015810044
:1025fc0081158100121681000282b800028bb8008e
:10260c0086824200521681000283b800028cb80008
:10261c0088834300f8158100091681003a16810061
:10262c004b1681000c0178000210b0000404440029
:10263c0085844c000605450087854d0020168100d9
:10264c006116810000c8de0081d8de000c86e8002f
:10265c00011e40000260e100f4ff3a000c10b100d2
:10266c00f8158900091689003a1689004b1689005d
:10267c0090158100a1158100921681000282b8008c
:10268c00028bb80086824200d21681000283b80009
:10269c00028cb8008883430078168100891681006b
:1026ac00ba168100cb1681000c0178000210b00024
:1026bc000404440085844c000605450087854d00c4
:1026cc00a0168100e116810000c8de0081d8de0072
:1026dc000c86e800010040001c1e40000260e10076
:1026ec00f3ff3a000c10b1007816890089168900a6
:1026fc00ba168900cb168900b0158100c11581006e
:10270c00121781000282b800028bb8008682420048
:10271c00521781000283b800028cb80088834300f2
:10272c00f8168100091781003a1781004b178100b8
:10273c000c0178000210b0000404440085844c00a5
:10274c000605450087854d00201781006117810023
:10275c0000c8de0081d8de000c86e80001004000d5
:10276c001c1e40000260e100f3ff3a000c10b100a7
:10277c00f8168900091789003a1789004b17890048
:10278c00d0158100e1158100921781000282b800fa
:10279c00028bb80086824200d21781000283b800f7
:1027ac00028cb80088834300781781008917810058
:1027bc00ba178100cb1781000c0178000210b00011
:1027cc000404440085844c000605450087854d00b3
:1027dc00a0178100e117810000c8de0081d8de005f
:1027ec000d1e7800010040001c1e40000260e1003c
:1027fc00f3ff3a007817890089178900ba17890006
:10280c00cb17890056ff37001d4080000aff3700a8
:10281c0000fe2f00e802b6000000a0004017880060
:10282c00eba2a9007a66a800c00120006226b700be
:10283c00003c20007626b7000a00090000000000ca
:10284c006406f8004208f9007806f8004408f9001c
:10285c0030fe2f006226b600f0c32f007626b6009d
:10286c004f06be004f05be004f04be000000060020
:10287c005dff370000fe2f00e802b6008001b300b8
:10288c0040178800eba2a8007a66a900c0012000be
:10289c006226b700003c20007626b7000a0009002b
:1028ac00000000006406f8004208f9007806f80001
:1028bc004408f90030fe2f006226b600f0c32f004a
:1028cc007626b6004f06be004f05be004f04be0074
:1028dc000000060044ff37000c00fa00c001200085
:1028ec006626b700003c20007a26b70010002000b6
:1028fc003042880050002000e04188003ea8ef00e4
:10290c0040a8ef005208f8004808f90042a8ef0070
:10291c0044a8ef006c8157000080270001002000c4
:10292c004d030700688157004080270001002000fc
:10293c0049030700648157008080270001002000b4
:10294c00450307002fb89700bfb89700ef0f500052
:10295c00e08f5800030036006000b800a0bf9f0055
:10296c00b1bf9f004fb89700dfb89700ef0f500032
:10297c00e08f5800040036003000200001002000d9
:10298c00c0bf9f00d1bf9f006fb89700ffb89700e2
:10299c00f2032000820f5000e08f58000400360034
:1029ac000002200001002000e0bf9f00f1bf9f004b
:1029bc002fb897000c0307004fb89700edfa0700eb
:1029cc006fb897007f006000300888000080fa0024
:1029dc00000006001800fa00889fbe00f14180003c
:1029ec00014288003e28ef00104280000004eb00fa
:1029fc000028a3000200320018002000f8418800d3
:102a0c000038a300020032000810a000f841880032
:102a1c000048a300020032000820a000f841880002
:102a2c00204280000068a300020032000830a000a1
:102a3c00f84188000078a300020032000840a00092
:102a4c00f84188000088a300020032000850a00062
:102a5c00f84188000098a300020032000860a00032
:102a6c00f8418800810074000884680030428000be
:102a7c00e10f5000b1003200c344de000700320009
:102a8c00e40f5000f0003200bf003600e50f50009c
:102a9c00f1003200e60f5000d4003200a7fa070014
:102aac00e20f5000980032000828a30052003200b8
:102abc00f14180000108a300af0032006500200046
:102acc000118a300010032002500200031428000d3
:102adc00858f5000510032005208f8004808f90068
:102aec0035428800e5805000e18f500050003600e0
:102afc0092428000414280008100510013c0b3001b
:102b0c00940f2000848f5000010036008041eb00b0
:102b1c00341f2000848f5000010036004242880090
:102b2c00c00120006626b700e48f5200c0003200be
:102b3c0077003e00e28f5200b7003200e38f520064
:102b4c00a50032007dfa07008000780020c8bf0085
:102b5c000080fb00010178000200a20002f0a70037
:102b6c000201ea000201e9004f11de008201680057
:102b7c0012822000124178000281fb000110a20099
:102b8c0001f0a7008100ea008100e900cf08de0017
:102b9c00810f5100010032000310a0002248e20016
:102bac00010032000320a0002348e20001003200a3
:102bbc000330a000003c20007a26b7000338a300a5
:102bcc00010032007b26a9000328a300010032007b
:102bdc007b06a9000318a300010032007ae6a900c5
:102bec000308a300010032007ac6a9004f04be00fe
:102bfc000080fa00000006000818a30059003200fb
:102c0c00350020003e48ab00b0ff3a0065002000c4
:102c1c0031428000858f5000afff3a001500200034
:102c2c0035428800e5805000e18f5000b0ff3e0037
:102c3c007c815700008027000100200086020700dd
:102c4c007881570040802700010020008202070095
:102c5c007481570080802700010020007e0207004d
:102c6c00300880004a00dd004a80de000002b0001f
:102c7c00cf80de0080bf9f0091bf9f0061020700e4
:102c8c00cf80de00a0bf9f00b1bf9f0047fa0700b6
:102c9c00cf80de00c0bf9f00d1bf9f002fb997002f
:102cac00bfb997002fb29700bfb29700840f5100a5
:102cbc00858f590005003a004fb19700dfb197009e
:102ccc00820f5000838f58006b0032000080270069
:102cdc00010020004e0207006c8157000080270085
:102cec000100200062020700688157004080270025
:102cfc00010020005e0207007081570080802700d1
:102d0c00010020005a0207003542800078ff37008e
:102d1c00e58f520039003200e68f520089ff3a00ed
:102d2c000304e000020032006686a9006666a90072
:102d3c001efa0700800178009eff37000868a30088
:102d4c0021003a000858a3001b003a000848a300d1
:102d5c0015003a000838a30050ff32005dfb070055
:102d6c004eff37000808a300e7ff320045002000a3
:102d7c003e48ab0055ff3a000000eb0058fc070042
:102d8c005500200051ff3700e20f50003600320092
:102d9c00e30f500041ff3a008004fd003ca8b60050
:102dac008004fd003dff370036fb07000838a30008
:102dbc003aff3200e9ff37007dfb07000848a3000b
:102dcc00e4ff3200f8ff3700c7fa07000858a300e9
:102ddc00deff3200f8ff37000304e0000100320090
:102dec006666a900e341800072ff3700eff9070027
:102dfc0009006800dff9070028ff37000304e00032
:102e0c00020032006686a9006646a900fd01070093
:102e1c008001780067ff37000304e00001003200f6
:102e2c006686a9001efc07008001780061ff370050
:102e3c000304e000010032006646a900caf907004d
:102e4c00800178005bff3700c7f9070009006800b4
:102e5c00bdf9070011ff3700ea01070009006800ff
:102e6c00e10107000dff37000dfc070009006800a9
:102e7c000efd070009ff37006fb09700ffb09700f9
:102e8c000fb997009fb99700800f5100818f59009f
:102e9c009dff32000080270001002000dc010700ac
:102eac006c8157000080270001002000f001070012
:102ebc00688157004080270001002000ec010700ca
:102ecc00708157008080270001002000e801070076
:102edc008dff3700881f7800000478003042800096
:102eec00e50f5000020032004f047800000006008d
:102efc000000eb00fafb07000884d1000802b100c7
:102f0c00380888004f04780000000600f8ff3700ee
:102f1c0000002300100888000621ef000c21ef00b0
:102f2c000e21ef006821ef006a21ef000821ef006d
:102f3c000070200050088800f00f2000c00b8800a3
:102f4c00d00b8800e00b8800f00b8800000c880088
:102f5c00100c8800200c8800300c88007961a900c6
:102f6c0078a1a9007861a9007a01a9008481a9003f
:102f7c0084a1a90010002000a209200081072000d4
:102f8c00131020008149780082497800804978002c
:102f9c007205200061042000031020008149780094
:102fac0082497800804978000001ab00feff3a00ae
:102fbc0000a1ab00feff320062a6ef0050ff2f0015
:102fcc00b0338800c001200040338800003c200052
:102fdc00e03388006626ef007a26ef006a26ef00c1
:102fec007e26ef007026ef008426ef00f201200011
:102ffc0092338800303488007426ef008826ef0066
:10300c006e26ef008226ef0030002000603388002f
:10301c008026ef005fe6a8009a60a80000088000f8
:10302c00f00bb20063042000740520000110200096
:10303c00834878008448780080487800f00f280096
:10304c00153f80008500600001b0a000113f880092
:10305c0001f82f00153f8000858060009100b300bf
:10306c00113f8800013f8000810260000170200048
:10307c0085807000013f8800c13e800081026000a5
:10308c0001d0200085807000c13e880001fc2f001b
:10309c00a53d8000858060000120a000a13d880036
:1030ac00010880000160a00005102000834a780010
:1030bc00844a7800814a780041032000b1118800cd
:1030cc0091062000a11188009211880061c0210096
:1030dc0081118800c424ef00c5e4a800c404a80032
:1030ec00caa4ef00c824ef009421ef009021ef0058
:1030fc00910f2000910c8800f2fc2f00a30c800093
:10310c00830061000150a000a10c880095e1a8008b
:10311c008860a900f3ff28004405800084816100c9
:10312c000100230083807000410588009860a8008e
:10313c00f423ef00f623ef00f823ef00fc23ef005d
:10314c00fe23ef000824ef00f7e3a800f1cf2f00d7
:10315c00b51f8000858060000190a000b11f880021
:10316c00f4a3a800f503a800f4c3a9000424ef00fd
:10317c000864a800f403a800f5e3a800cc24ef0031
:10318c00ce24ef00e10a22008126880001402000b5
:10319c009126880001102000a1268800ce04a800ea
:1031ac007126800081016000017022008380700014
:1031bc0071268800cd24a800f1f32f00642680002e
:1031cc00848160000360a00063268800c54c200049
:1031dc00950a610034ff2f0065268000850162008e
:1031ec000320a00063268800cc04a80083ff2f00d6
:1031fc0055058000858161000320a00053058800df
:10320c009880a8000024ef000024ef009823ef0022
:10321c009863a80099e3a800f3072000031d880019
:10322c00a223ef009a23ef009b83a800d624ef0083
:10323c00d824ef00e3392000d3268800e3302200a5
:10324c00e326880003042000f3268800d804b60087
:10325c000350240080817100c3268800d724a80065
:10326c00604d200010886000b326800003016100cf
:10327c000240a000b2268800b5268000050062003e
:10328c000020a000b0268800d604a800e822ef0099
:10329c00e8e2a80000fe2f00e802b6008001b300af
:1032ac0040178800ea22ef00ebe2a800eba2a8008e
:1032bc00a02e200010886000ea82a800c0ff2f001a
:1032cc00ea22b600000006004a68ef004c28ef0026
:1032dc000040eb00e1382200804878008100e800d3
:1032ec00804878008100e800804878008100e80080
:1032fc00804878004e28ef005028ef0000000600b0
:10330c00889fbe008a9fbe008c9fbe008e1f7800d7
:10331c00f026800061428000090420008084540063
:10332c0081845400f903b2003e0032000004eb002b
:10333c00ec3022008b0f20000e3922000e85e900a4
:10334c006d462800018040006c0178000240780036
:10335c008100e800f103b200614288008280fb002a
:10336c0081017800830fb2008b8f51002400320052
:10337c000204e000450035008042800002757800b0
:10338c000000e80080428800e20f50000200360086
:10339c0030002000804288001a4078000004e000d1
:1033ac0008003200f04f400006003200e94f4000a8
:1033bc00040032007142800082428000810f510073
:1033cc001d0032000804e800888f540015003400fa
:1033dc0061428000018040006c017800024078005e
:1033ec008100e800f103b200614288008280fb009a
:1033fc0081017800830fb2008b8f5100dcff3a0003
:10340c00e64f41003200320029003e00e84f4100f7
:10341c00ecff3a0067f807000804e800888f5400b6
:10342c00ebff3c004f0778004f06be004f05be0077
:10343c004f04be00000006001100200081428800ed
:10344c000080fb00a2842000124178000281fb0066
:10345c00ef006000810f5100daff3a00000fb2005c
:10346c0001092000810f50003b0032001a003c0083
:10347c00f0805000810f5000d2ff3a00f13822004a
:10348c0011407800fcf80700ceff3700024d7800a1
:10349c00c408de00e7806000edc078008180fb008e
:1034ac00714288001100200081428800bbff370068
:1034bc00e54f410004003200e44f4100c1ff3a00e7
:1034cc006bf80700bfff370060f80700bdff37003f
:1034dc0048f80700bbff3700010b2000810f50009c
:1034ec000a003200010e2000810f5000b5ff3a0097
:1034fc009e80fb00c708dd00f23822001280fb0022
:10350c000100700068fa0700aeff3700f2382200a5
:10351c0012407800a1c4b300814f50002300320048
:10352c0017003e00e4c05000814f50002a003200ca
:10353c008140e800814f500023003200e14f5000e1
:10354c00a0ff3a001e80fb0065fa07001e80fb00fe
:10355c0060fe07009bff37001e04e00004003200f1
:10356c00f1382200114078007bf8070095ff3700f6
:10357c00f238220012407800bff8070091ff3700a4
:10358c0091c7b300814f50000d00320081c0e8009c
:10359c00814f500008003200e3c05000814f5000b2
:1035ac0088ff3a002efb070086ff37001e80fb00c9
:1035bc0047fa070083ff37001ffb070081ff370026
:1035cc0091fb07007fff37001e80fb004300de00ed
:1035dc00ddf707007bff37001e80fb004300de0099
:1035ec0032fb070077ff3700881f78000004780053
:1035fc0011fb0700a0842000084878004f047800d5
:10360c00000006004ac8bf000080fb000000060056
:10361c0032002400023b88005420ef00213b88003c
:10362c00103b88000500fc0050052000303b880052
:10363c00a00a2000303b880061e7a80000000000d1
:10364c000000000001002800023b800002806000a6
:10365c00fdff3a0000000600a10288001009ba0024
:10366c000080e8001000ba0010019800000006006d
:10367c0013002400033b8800a30f2000a302880042
:10368c00213b8800103b88000000eb001208bb00b7
:10369c00f10f20000188bb002000200012019000d7
:1036ac000208bb000188bb000500fc00500520008f
:1036bc00303b8800a00a2000303b880061e7a8005e
:1036cc00000000000000000001002800023b800008
:0c36dc0002806000fdff3a0000000600c4
:020000040000fa
:1036e8005208000002000000800000003c080000b2
:1036f8000e00000080000000540800005a18000066
:1037080080000000200800001c000000800000006d
:103718000e23000084000000800000004a0800001a
:103728000800000080000000ae20000060020000d9
:103738008000000000080000200000008000000059
:04374800000000007d
:020000040000fa
:10374c00f3fd0700e0fe070099f90700a3f407005a
:10375c0061fc07009ffc0700e9fe07006cf6070000
:10376c00b7f907009bfc0700e5fe070068f60700a9
:08377c00b3f90700f7ff370065
:020000040000fa
:020000040005f5
:045e0000ffff0000a0
:020000040000fa
:020000040005f5
:045e2000ffffff0081
:020000040000fa
:020000040005f5
:045e300008ffff0068
:020000040000fa
:020000040005f5
:045e380063ffff0005
:020000040000fa
:020000040005f5
:045e40009fffff00c1
:020000040000fa
:020000040005f5
:045e4800ffffff0059
:020000040000fa
:020000040005f5
:045e5000deffff0072
:020000040000fa
:020000040005f5
:045e5800ffffff0049
:00000001FF
